:10000000F1C100000FC200000DC200000BC20000D1
:1000100009C2000007C2000005C2000003C20000C0
:1000200001C20000FFC10000FDC10000FBC10000D3
:10003000F9C10000F7C10000F5C10000F3C10000E4
:10004000F1C1000034C50000EDC10000EBC10000AB
:10005000E9C10000E7C10000E5C10000E3C1000004
:10006000E1C10000DFC10000DDC10000DBC1000014
:10007000D9C1000035C50000D5C10000D3C10000C2
:10008000D1C10000CFC10000CDC10000CBC1000034
:100090008FC50000C7C10000C5C10000C3C100007A
:1000A000C1C10000BFC10000BDC10000BBC1000054
:1000B000B9C10000B7C10000B5C10000B3C1000064
:1000C000B1C10000AFC10000ADC10000ABC1000074
:1000D000A9C10000A7C10000A5C10000A3C1000084
:1000E000A1C10000000000000000000000005F004F
:1000F00000000000000007000700000000147F144B
:100100007F14000000242A7F2A1200000023130815
:1001100064620000003649552250000000000503CB
:1001200000000000001C2241000000000041221CD1
:100130000000000000082A1C2A0800000008083EF1
:100140000808000000A06000000000000008080887
:100150000808000000606000000000000020100897
:1001600004020000003E5149453E00000000427F6D
:100170004000000000625149494600000022414908
:1001800049360000001814127F1000000027454572
:1001900045390000003C4A4949300000000171091E
:1001A0000503000000364949493600000006494968
:1001B000291E000000003636000000000000AC6C74
:1001C0000000000000081422410000000014141474
:1001D0001414000000412214080000000002015124
:1001E0000906000000324979413E0000007E0909FD
:1001F000097E0000007F494949360000003E414128
:1002000041220000007F4141221C0000007F49493B
:1002100049410000007F090909010000003E4141F9
:1002200051720000007F0808087F000000417F41F4
:1002300000000000002040413F010000007F081442
:1002400022410000007F404040400000007F020C3F
:10025000027F0000007F0408107F0000003E414143
:10026000413E0000007F090909060000003E41519F
:10027000215E0000007F0919294600000026494937
:10028000493200000001017F01010000003F4040B1
:10029000403F0000001F2040201F0000003F40386A
:1002A000403F00000063140814630000000304785A
:1002B000040300000061514945430000007F4141B3
:1002C0000000000000020408102000000041417FEF
:1002D0000000000000040201020400000080808091
:1002E000808000000001020400000000002054543F
:1002F00054780000007F48444438000000384444EB
:100300002800000000384444487F0000003854545E
:100310005418000000087E09020000000018A4A480
:10032000A47C0000007F08040478000000007D0029
:10033000000000000080847D00000000007F102885
:100340004400000000417F4000000000007C0418D1
:1003500004780000007C08047C000000003844445D
:100360003800000000FC2424180000000018242499
:10037000FC00000000007C08040000000048545409
:100380002400000000047F4400000000003C4040C6
:100390007C000000001C2040201C0000003C40307D
:1003A000403C00000044281028440000001CA0A08D
:1003B0007C000000004464544C44000000083641B6
:1003C0000000000000007F0000000000004136082F
:1003D000000000000002010102010000000205050A
:1003E0000200000011241FBECFEFD1E2DEBFCDBF5F
:1003F00000E00CBF12E0A0E0B2E0EAE4F5E100E0CA
:100400000BBF02C007900D92AE34B107D9F720E1BF
:10041000AEE4B2E001C01D92AA35B207E1F788D17F
:100420000C94A30AEDCDEAE7F0E090819C689083FC
:10043000ECE7F0E0808390819066908321E030E0EB
:10044000A90102C0440F551F8A95E2F7EEE7F0E0DC
:1004500040838081809580838FEF80937D00089515
:10046000089A109A2FEF83ED90E32150804090403E
:10047000E1F700C0000082E18093B800E9EBF0E012
:1004800080818C7F808385E08093BC00089594EA0E
:100490009093BC00ECEBF0E090819923ECF7909105
:1004A000B900987F983099F48093BB0084E88093DA
:1004B000BC00ECEBF0E080818823ECF78091B90080
:1004C000887F883131F0803231F083E0089580E018
:1004D000089581E0089582E008958093BB0084E848
:1004E0008093BC00ECEBF0E080818823ECF78091F6
:1004F000B900887F883221F0803321F082E00895AE
:1005000080E0089581E0089584E98093BC00ECEBDD
:10051000F0E0808184FDFDCF089510928000E1E835
:10052000F0E01082109285001092840020812860F3
:1005300020838F319105D8F42081236020839C0192
:100540000024369527950794369527950794322FE2
:10055000202D40E050E060E074E284EF90E0C3D4EE
:1005600020543109309389002093880030C0853FA2
:100570009105D0F4E1E8F0E02081226020839C0125
:10058000220F331F220F331F220F331F40E050E092
:1005900060E074E284EF90E0A6D4285031093093F3
:1005A00089002093880013C0E1E8F0E020812160F9
:1005B00020839C0140E050E060E074E284EF90E032
:1005C00092D4215031093093890020938800EFE6BE
:1005D000F0E08081826080830895EF92FF920F9314
:1005E0001F93CF93DF93CDB7DEB70DB71EB78091C2
:1005F0004B0790914C0707962DB73EB7281B390B38
:100600000FB6F8943EBF0FBE2DBF8DB79EB70196B3
:100610007C0180914B0790914C07079625E5EDB73B
:10062000FEB721832AEAF70121839283838382E044
:100630008483809102028130D9F480914B0790919C
:100640004C0704960597BCF0359625E030E0D901BB
:10065000A25ABC4F8C9181932F5F3F4F40914B0723
:1006600050914C074C5F5F4F4217530784F705C00A
:1006700025E030E002C025E030E0809102028230C7
:10068000D9F480914B0790914C07049682179307F9
:100690009CF0F701E20FF31FD901A55AB44F9C91CA
:1006A00091932F5F3F4F40914B0750914C074C5F08
:1006B0005F4F4217530784F7E0914B07F0914C07C7
:1006C000EE0DFF1D1582E0914B07F0914C07EE0DEA
:1006D000FF1D168260914B0770914C076A5F7F4F38
:1006E000C701DAD30FB6F8941EBF0FBE0DBFDF915E
:1006F000CF911F910F91FF90EF9008950F931F934B
:10070000CF93DF93082F162FD42FCAE5C427C6270F
:10071000C8278AE5B0D2802FAED2812FACD28D2FE0
:10072000AAD28C2FA8D2DF91CF911F910F9108955B
:10073000CF93DF93CDB7DEB7C956D1090FB6F89482
:10074000DEBF0FBECDBF80E06EDE80E190E078D3EB
:1007500080E190E087D384DEA1D20AD381D278945D
:100760008AE090E0DADE332433940F2EF3E02F2E6C
:10077000F02D432C622C0F2EFEE4CF2EF0E1DF2E65
:10078000F02D0F2EFEE18F2EF2E09F2EF02D7E0138
:1007900026E0E20EF11C0F2EF4E3AF2EF2E0BF2EA6
:1007A000F02D09EE13E04092530B1092530B809101
:1007B00059104AE0BE016F5F7F4F90E0B6D341E031
:1007C00050E061E070E0CE01019601D38EE392E04B
:1007D000D3D26092590280915902823009F486C0C6
:1007E000833009F4EDC08130F1F640E050E065E07F
:1007F00070E084E092E0EBD2F601858180935802AC
:10080000968190935702813099F48091560281111C
:1008100003C04092560244C1813021F482E08093AB
:1008200056023EC1823009F03BC11092560238C1D7
:10083000823099F480915202811135C14091530266
:10084000609154028091550259DF4092520240E07B
:1008500060E080E053DF10925202809158028330B2
:1008600039F41092550210925402109253021FC094
:1008700081111DC080915602811105C080915702DF
:10088000809355020DC0813029F4809157028093E6
:10089000540206C0823021F48091570280935302A3
:1008A00040915302609154028091550227DFE4E5A4
:1008B000FBE085E580838AEA818312828BE0838373
:1008C000348280915602858380915502868380917F
:1008D00054028783809153028087118612866BE0D1
:1008E00070E0CF01D9D2109259025DCF40E050E0C4
:1008F00065E070E081E192E06AD2F6018581809343
:100900004D0B868180935F0B20914D0B80915F0B87
:1009100090E0922B90934C1080934B10878190E045
:100920009093490F8093480F808590E090934B0FF0
:1009300080934A0F8091480F9091490F20914A0F60
:1009400030914B0F982F8827822B932B90934C0735
:1009500080934B0780914B1090914C10DEDD80917D
:100960004B1090914C109F938F939F928F92FF9278
:10097000EF92FED240E050E066E070E0C70127D27F
:1009800080914B0790914C079F938F93BF92AF92AA
:10099000FF92EF92EDD240E050E067E070E0C701D7
:1009A00016D280914B0790914C070FB6F894DEBF9A
:1009B0000FBECDBF181619060CF0F5CE0EDEF3CE25
:1009C00040E050E065E070E081E492E000D21092F7
:1009D000600377247A94512C80E197E29EDD609247
:1009E000550270925402E091600351E05E0F509303
:1009F000530289EE93E0472D252D3091591034177D
:100A000010F44091591030915910231710F420918F
:100A10005910019791F7109362030093610320939B
:100A2000510B4093500B822F90E0841B91099C0145
:100A300012F42F5F3F4F359527952093520BF0E02E
:100A4000E45BF04F2083509360035F3F29F6ECE4B2
:100A5000FFE0408140934D10EAE5F2E085E58083B8
:100A60008AEA8183328286E083832482ACE4BFE019
:100A7000EFE5F2E02EE533E08D91642F28D28193EB
:100A8000E217F307C9F78FEF8093600310925E03BC
:100A900010925F0365E071E08AE592E0FDD183CEBC
:100AA00080915802E5CE813009F001CFD0CE1F925F
:100AB0000F920FB60F9211240BB60F928F93EF93F4
:100AC000FF93EAE7F0E0808180648083FF91EF91FB
:100AD0008F910F900BBE0F900FBE0F901F90189527
:100AE0001F920F920FB60F9211240BB60F922F93F5
:100AF0003F938F939F93EF93FF938091790080931F
:100B00005910809102028130D9F420915002309125
:100B1000510280915910F901ED59FC4F8083809169
:100B20004B0790914C070197281739074CF08FEF2E
:100B30009FEF909351028093500282E080930202D3
:100B4000809102028230D9F42091500230915102FA
:100B500080915910F901E05AF44F808380914B073E
:100B600090914C070197281739074CF08FEF9FEFB2
:100B7000909351028093500281E080930202809111
:100B8000500290915102019690935102809350022D
:100B900081E08093530BFF91EF919F918F913F9153
:100BA0002F910F900BBE0F900FBE0F901F901895B6
:100BB0001F920F920FB60F9211240BB60F922F9324
:100BC0003F938F939F93EF93FF9380914E02909169
:100BD0004F022091CE00FC01E25BFF4E2083019684
:100BE00090934F0280934E0220915210213041F495
:100BF0002093590229E030E0309301022093000253
:100C000020915210223041F4209359022BE030E021
:100C1000309301022093000220915210233041F4BE
:100C20002093590227E030E0309301022093000224
:100C300020910002309101028217930721F4109253
:100C40004F0210924E02FF91EF919F918F913F9131
:100C50002F910F900BBE0F900FBE0F901F90189505
:100C600084B1876084B98CB5806D8CBD8CB5836090
:100C70008CBD289A089528988EBD0DB407FEFDCF2F
:100C8000289A0895CF93C82F8091030200DC80E05A
:100C900024DC8C2F22DC38DCCF9108958EEAF2DF41
:100CA00085EDF0DF80E8EEDF88EAECDF8FE3EADF56
:100CB00083EDE8DF80E0E6DF80E4E4DF8DE8E2DF7B
:100CC00084E1E0DF80E2DEDF80E0DCDF81EADADFA2
:100CD00088ECD8DF8AEDD6DF82E1D4DF81E8D2DF8D
:100CE0008FECD0DF89EDCEDF81EFCCDF8BEDCADF7B
:100CF00080E4C8DF84EAC6DF86EAC4DF8FEAC2CFB9
:100D000008958FEABFCF08958EEABCCF0895CF93A0
:100D1000C82F80910302BBDB80E4DFDB8C2FDDDB9F
:100D2000F3DBCF910895CF93C62F8055ABDF8C2F87
:100D3000880F880F880F8870A5DF8C2F90E096951C
:100D400087958F70805F9EDFCF910895CF93DF935B
:100D5000D0E060E08D2FE7DFC0E080E0D8DFCF5F3C
:100D6000C038D9F7DF5FD830A1F7DF91CF91089570
:100D7000CBDFECDFC6CF08950F931F93CF93DF93A4
:100D80008C01DC018C9181111AC01CC0D801EC913E
:100D9000F0E0EE0FFF1FEE0FFF1FEE0FFF1FEC51F5
:100DA000F040EC0FFD1F8491B2DF2196C830D105D1
:100DB00069F70F5F1F4FF8018081882319F0C0E0A9
:100DC000D0E0E4CFDF91CF911F910F910895FF9272
:100DD0000F931F93CF93DF93EC01862FF62E642F92
:100DE000A2DF9881992331F1F3949A3039F460E0CD
:100DF0008F2D99DF8E010F5F1F4F01C08E01C0E064
:100E0000D0E0D801EC91F0E0EE0FFF1FEE0FFF1FD6
:100E1000EE0FFF1FEC51F040EC0FFD1F849177DFC8
:100E20002196C830D10569F7E8012196F801918132
:100E30009111DBCFDF91CF911F910F91FF9008951A
:100E400022E02093C800E9ECF0E0208128692083AB
:100E5000EAECF0E02081266020839093CD0080931F
:100E6000CC00089522E02093C000E1ECF0E0208166
:100E700028612083E2ECF0E02081266020839093BB
:100E8000C5008093C4000895E8ECF0E0908195FFE0
:100E9000FDCF8093CE000895EF92FF920F931F93A2
:100EA000CF93DF938C017B01772354F0C0E0D0E037
:100EB000F80181918F01E8DF2196EC16FD06C4F759
:100EC000DF91CF911F910F91FF90EF900895991BA3
:100ED00079E004C0991F961708F0961B881F7A9531
:100EE000C9F780950895A1E21A2EAA1BBB1BFD012C
:100EF0000DC0AA1FBB1FEE1FFF1FA217B307E407F9
:100F0000F50720F0A21BB30BE40BF50B661F771F50
:100F1000881F991F1A9469F7609570958095909530
:100F20009B01AC01BD01CF010895BB274A3031F4CC
:100F3000992322F4BDE2909581959F4F01C0BB2774
:100F4000FB015527AA27880F991FAA1FA41710F085
:100F5000A41B83955051B9F7A05DAA3308F0A95D91
:100F6000A193009779F7B111B1931192CB0141C2CE
:100F70000F931F93CF93DF93CDB7DEB72E970FB6A6
:100F8000F894DEBF0FBECDBF0E891F8986E08C832B
:100F90001A8309838FEF9FE79E838D83AE01465EA0
:100FA0005F4F688D798DCE01019610D0EF81F88565
:100FB000E00FF11F10822E960FB6F894DEBF0FBE21
:100FC000CDBFDF91CF911F910F9108952F923F9246
:100FD0004F925F926F927F928F929F92AF92BF9249
:100FE000CF92DF92EF92FF920F931F93CF93DF93F5
:100FF000CDB7DEB72B970FB6F894DEBF0FBECDBFCF
:101000006C017B018A01FC0117821682838181FFBA
:10101000BFC1CE0101963C01F6019381F70193FD1A
:10102000859193FF81917F01882309F4ADC18532B9
:1010300039F493FD859193FF81917F01853221F4ED
:10104000B60190E0E6D1E8CF912C212C312CFFE1C4
:10105000F315D8F08B3279F038F4803279F083329E
:10106000A1F4232D20611DC08D3261F0803369F41D
:10107000232D216016C0832D8260382EE32DE4607D
:101080003E2E2AC0F32DF8601DC037FC2DC020ED88
:10109000280F2A3040F08E32B9F436FC75C1232D6A
:1010A0002064322E19C036FE06C08AE0989E200DBC
:1010B0001124922E11C0EAE02E9E200D1124222E22
:1010C000F32DF0623F2E08C08C3621F4832D80680A
:1010D000382E02C0883641F4F70193FD859193FFC5
:1010E00081917F018111B3CF982F9F7D95549330CB
:1010F00028F40C5F1F4F9FE399830DC0833631F0B6
:10110000833771F0833509F055C020C0F801808124
:1011100089830E5F1F4F88248394912C530112C042
:101120002801F2E04F0E511CF801A080B18036FE7C
:1011300003C0692D70E002C06FEF7FEFC5014ED193
:101140004C018201F32DFF773F2E15C0280122E0CC
:10115000420E511CF801A080B18036FE03C0692DFB
:1011600070E002C06FEF7FEFC5012DD14C01F32D70
:10117000F0683F2E820133FC19C0822D90E0881662
:101180009906A0F4B60180E290E043D12A94F5CF0D
:10119000F50137FC859137FE81915F01B60190E042
:1011A00038D121102A9421E0821A910881149104E7
:1011B00079F7E1C0843611F0893639F5F80137FE48
:1011C00007C060817181828193810C5F1F4F08C0CD
:1011D00060817181072E000C880B990B0E5F1F4FE9
:1011E000F32DFF763F2E97FF09C09095809570955F
:1011F00061957F4F8F4F9F4FF0683F2E2AE030E080
:10120000A30143D1882E861844C0853731F4232D9D
:101210002F7EB22E2AE030E025C0932D997FB92E83
:101220008F36C1F018F4883579F0AEC0803719F0E8
:10123000883721F0A9C0E92FE061BE2EB4FE0DC0B1
:10124000FB2DF460BF2E09C034FE0AC0292F266092
:10125000B22E06C028E030E005C020E130E002C038
:1012600020E132E0F801B7FE07C060817181828120
:1012700093810C5F1F4F06C06081718180E090E018
:101280000E5F1F4FA30101D1882E8618FB2DFF771B
:101290003F2E36FE0DC0232D2E7FA22E891458F42A
:1012A00034FE0BC032FC09C0832D8E7EA82E05C0F3
:1012B000B82CA32C03C0B82C01C0B92CA4FE0FC0BD
:1012C000FE01E80DF11D8081803321F49A2D997E75
:1012D000A92E09C0A2FE06C0B394B39404C08A2DFF
:1012E000867809F0B394A3FC10C0A0FE06C0B21427
:1012F00080F4280C922C9B180DC0B21458F4B6013F
:1013000080E290E086D0B394F8CFB21418F42B1892
:1013100002C0982C212CA4FE0FC0B60180E390E0FF
:1013200078D0A2FE16C0A1FC03C088E790E002C0FE
:1013300088E590E0B6010CC08A2D867851F0A1FEB8
:1013400002C08BE201C080E2A7FC8DE2B60190E012
:1013500060D0891430F4B60180E390E05AD09A94BA
:10136000F8CF8A94F301E80DF11D8081B60190E079
:1013700050D08110F6CF222009F44ECEB60180E283
:1013800090E047D02A94F7CFF6018681978102C07A
:101390008FEF9FEF2B960FB6F894DEBF0FBECDBF39
:1013A000DF91CF911F910F91FF90EF90DF90CF9041
:1013B000BF90AF909F908F907F906F905F904F9075
:1013C0003F902F900895FC010590615070400110EE
:1013D000D8F7809590958E0F9F1F0895FC0161505E
:1013E000704001900110D8F7809590958E0F9F1F47
:1013F0000895DC01FC01672F71917723E1F73297A3
:1014000004C07C916D9370836291AE17BF07C8F3DF
:1014100008950F931F93CF93DF93FB01238121FD49
:1014200003C08FEF9FEF2CC022FF16C0468157816B
:10143000248135814217530744F4A081B1819D0175
:101440002F5F3F4F318320838C93268137812F5F1D
:101450003F4F3783268314C08B01EC01FB010084CE
:10146000F185E02D1995892BE1F6D80116968D911D
:101470009C911797019617969C938E931697CE0181
:10148000DF91CF911F910F910895FA01AA2728307B
:1014900051F1203181F1E8946F936E7F6E5F7F4F41
:1014A0008F4F9F4FAF4FB1E03ED0B4E03CD0670FBD
:1014B000781F891F9A1FA11D680F791F8A1F911D10
:1014C000A11D6A0F711D811D911DA11D20D009F460
:1014D00068943F912AE0269F11243019305D3193A2
:1014E000DEF6CF010895462F4770405D4193B3E08B
:1014F0000FD0C9F7F6CF462F4F70405D4A3318F032
:10150000495D31FD4052419302D0A9F7EACFB4E0E2
:10151000A6959795879577956795BA95C9F700979A
:101520006105710508959B01AC010A2E069457953B
:10153000479537952795BA95C9F7620F731F841F92
:0A154000951FA01D0895F894FFCF39
:10154A000B00017847656E657261746F7220202006
:10155A00004F7363696C6C6F73636F7065005361DE
:10156A006D706C6520726174653A202564202020B4
:10157A0020202000524C3A202564202020202020C0
:0E158A0000426F6465706C6F7420202020009A
:00000001FF
