S01300004F7363696C6F73636F70652E737265638E
S113000071C000008EC000008CC000008AC00000D7
S113001088C0000086C0000084C0000082C00000C8
S113002080C000007EC000007CC000007AC00000D8
S113003078C0000076C0000074C0000072C00000E8
S113004070C00000DBC200006CC000006AC0000089
S113005068C0000066C0000064C0000062C0000008
S113006060C000005EC000005CC000005AC0000018
S113007058C00000DCC2000054C0000052C00000A0
S113008050C000004EC000004CC000004AC0000038
S113009036C3000046C0000044C0000042C0000057
S11300A040C000003EC000003CC000003AC0000058
S11300B038C0000036C0000034C0000032C0000068
S11300C030C000002EC000002CC000002AC0000078
S11300D028C0000026C0000024C0000022C0000088
S11300E020C0000011241FBECFEFD1E2DEBFCDBF80
S11300F000E00CBF12E0A0E0B2E0EEE7F9E000E0BF
S11301000BBF02C007900D92A630B107D9F72CE0BF
S1130110A6E0B2E001C01D92A531B207E1F7B0D06C
S11301202CC46ECFEAE7F0E090819C689083ECE702
S1130130F0E0808390819062908321E030E0A90117
S113014002C0440F551F8A95E2F7EEE7F0E04083C2
S11301508081809580838FEF80937D000895109235
S11301608000E1E8F0E01082109285001092840093
S113017020812B6020839C0140E050E060E970ED19
S113018083E090E0A8D32150310930938900209373
S11301908800EFE6F0E08081826080830895EF922A
S11301A0FF920F931F93CF93DF93CDB7DEB7FC017C
S11301B00DB71EB7809104079091050707962DB7D8
S11301C03EB7281B390B0FB6F8943EBF0FBE2DBFA8
S11301D08DB79EB701967C01809104079091050725
S11301E0079625E5ADB7BEB711962C932AEAD70139
S11301F011962C93119712969C93129713968C93A5
S1130200139782E014968C93A0910407B09105078C
S1130210AE0DBF1D15961C92A0910407B091050761
S1130220AE0DBF1D16961C92809104079091050790
S1130230059606978CF0D701159645E050E091910C
S11302409D934F5F5F4F20910407309105072B5F0B
S11302503F4F421753079CF36091040770910507C1
S11302606A5F7F4FC70109D30FB6F8941EBF0FBE54
S11302700DBFDF91CF911F910F91FF90EF900895E3
S113028080E050DF80E190E0CCD280E190E0DBD2EE
S113029090D2789484E690E062DFD1E00F2EF9E00A
S11302A0CF2EFCE0DF2EF02D0F2EF8E8AF2EB12C70
S11302B0F02D0F2EF8E16F2E712CF02D0F2EF3E0A0
S11302C08F2EF02DCFEF0F2EF3E1EF2EF2E0FF2E65
S11302D0F02D0F2EF5E59F2EF02D0F2EF7E14F2E6A
S11302E0F3E05F2EF02D0F2EF8E12F2EF3E03F2EDA
S11302F0F02D0DE017E080911202823009F47DC0E8
S1130300833009F412C18130B1F780910402811164
S1130310F2CFD0930402F601858180931102968175
S113032090931002811117C080910F02811103C0B4
S113033090930E0209C0813019F490930D0204C009
S1130340823011F490930C0240910C0260910D02E2
S113035080910E0238D280911102813091F4809103
S11303600F02823019F410920F022AC0811103C0C7
S1130370D0930F0225C0813019F5F2E0F0930F02FB
S11303801FC0823099F480910B02811133C14091D6
S11303900C0260910D0280910E0215D2D0930B02D3
S11303A040E060E080E00FD210920B0280911102D5
S11303B0833031F410920E0210920D0210920C024E
S11303C0F80190828AEA818312828BE08383D4834A
S11303D080910F02858380910E02868380910D02A5
S11303E0878380910C028087118612866AE070E010
S11303F0C80143D2109212027ECF8091040281116F
S113040070C0F601858180930607868180931A0760
S11304102091060780911A0790E0922B9093070C85
S11304208093060C878190E09093040B8093030BD8
S1130430808590E09093060B8093050B8091030BCD
S11304409091040B2091050B3091060B982F88276F
S1130450822B932B90930507809304072091060C1D
S11304603091070C6091060C7091070CC901880F3C
S1130470991F880F991F880F991F821B930B7D5218
S113048017D288279927861B970B90931907809377
S1130490180720910407309105078091180790915F
S11304A01907281739074CF48091180790911907F8
S11304B0019690930507809304072091060C3091D0
S11304C0070C032E000C440B550B60E970ED83E020
S11304D090E001D221503109F50131832083D0937A
S11304E0040280910C07813009F005CF809103024A
S11304F0813059F4809102028130A1F48BE197E0BC
S11305004EDEF2E0F09302020DC0809103028111ED
S113051009C080910202823029F48CE193E03FDE2D
S1130520D093020210920C07E6CE8091040281114E
S1130530E2CEF5017182608280920E02C0930D02B8
S1130540F70190828AEA8183D28386E0838384825E
S11305501092190340E040930C0260910D028091C7
S11305600E0231D1C093090710920A0710921B039F
S113057010921A034C2F30E080E090E020910A02A0
S1130580213079F410920A022091140C241710F4EB
S11305904091140C2091140C321720F43091140C57
S11305A001C0019701968131F7E29F0738F39093D8
S11305B01B0380931A0330930A0740930907341BE3
S11305C030930B0740911903E42FF0E0ED5EFD4FEB
S11305D036834F5F409319034F3F09F0BCCFF201BC
S11305E01082F101108265E071E0C70146D1D09319
S11305F0040281CE813009F0E3CED2CE1F920F9255
S11306000FB60F9211240BB60F928F93EF93FF93B3
S1130610EAE7F0E0808180648083FF91EF918F911D
S11306200F900BBE0F900FBE0F901F9018951F9246
S11306300F920FB60F9211240BB60F922F933F9384
S11306408F939F93EF93FF93809179008093140C81
S113065081E080930A0280910302813011F5809138
S113066008029091090220917900FC01E45EFC4F9C
S11306702083019690930902809308022091040735
S11306803091050721503109281739075CF510927C
S11306900902109208021092030281E080930C0771
S11306A021C0809108029091090220917900FC01F7
S11306B0E55EF84F20830196909309028093080227
S11306C02091040730910507215031092817390773
S11306D04CF4109209021092080281E08093030204
S11306E080930C07FF91EF919F918F913F912F91F0
S11306F00F900BBE0F900FBE0F901F9018951F9276
S11307000F920FB60F9211240BB60F922F933F93B3
S11307108F939F93EF93FF9380910602909107022A
S11307202091CE00FC01E75FF34F20830196909364
S113073007028093060220910D0C213041F420938E
S1130740120229E030E0309301022093000220914C
S11307500D0C223041F4209312022BE030E0309350
S113076001022093000220910D0C233041F42093C8
S1130770120227E030E0309301022093000220911E
S11307800002309101028217930731F4109207029C
S11307901092060210920402FF91EF919F918F91A3
S11307A03F912F910F900BBE0F900FBE0F901F9093
S11307B0189584B1876084B98CB580658CBD8CB57F
S11307C083608CBD08957AE5542F57275627582700
S11307D021E028987EBD0DB407FEFDCF3EB525B9B6
S11307E028988EBD0DB407FEFDCF9EB525B9289877
S11307F06EBD0DB407FEFDCF25B928984EBD0DB4CE
S113080007FEFDCF25B928985EBD0DB407FEFDCFC8
S113081025B9330F991F9927991F932B5913D9CFB2
S1130820089522E02093C800E9ECF0E020812869D3
S11308302083EAECF0E02081266020839093CD00B1
S11308408093CC00089522E02093C000E1ECF0E016
S1130850208128612083E2ECF0E02081266020835F
S11308609093C5008093C4000895E8ECF0E0908173
S113087095FFFDCF8093CE000895EF92FF920F93E2
S11308801F93CF93DF938C017B01772354F0C0E057
S1130890D0E0F80181918F01E8DF2196EC16FD0686
S11308A0C4F7DF91CF911F910F91FF90EF900895BE
S11308B097FB072E16F4009406D077FD08D027D0B6
S11308C007FC05D03EF4909581959F4F089570954F
S11308D061957F4F0895052E97FB16F400940FD071
S11308E057FD05D028D007FC02D046F408C0509527
S11308F04095309521953F4F4F4F5F4F0895909508
S11309008095709561957F4F8F4F9F4F0895AA1BD7
S1130910BB1B51E107C0AA1FBB1FA617B70710F0E6
S1130920A61BB70B881F991F5A95A9F78095909518
S1130930BC01CD010895A1E21A2EAA1BBB1BFD0127
S11309400DC0AA1FBB1FEE1FFF1FA217B307E407AA
S1130950F50720F0A21BB30BE40BF50B661F771F02
S1130960881F991F1A9469F76095709580959095E2
S11109709B01AC01BD01CF010895F894FFCFA7
S109097E0B000101010061
S9030000FC
