:10000000F1C100000EC200000CC200000AC20000D4
:1000100008C2000006C2000004C2000002C20000C4
:1000200000C20000FEC10000FCC10000FAC10000D7
:10003000F8C10000F6C10000F4C10000F2C10000E8
:10004000F0C10000A2C40000ECC10000EAC1000041
:10005000E8C10000E6C10000E4C10000E2C1000008
:10006000E0C10000DEC10000DCC10000DAC1000018
:10007000D8C10000A3C40000D4C10000D2C1000058
:10008000D0C10000CEC10000CCC10000CAC1000038
:10009000FAC40000C6C10000C4C10000C2C1000013
:1000A000C0C10000BEC10000BCC10000BAC1000058
:1000B000B8C10000B6C10000B4C10000B2C1000068
:1000C000B0C10000AEC10000ACC10000AAC1000078
:1000D000A8C10000A6C10000A4C10000A2C1000088
:1000E000A0C10000000000000000000000005F0050
:1000F00000000000000007000700000000147F144B
:100100007F14000000242A7F2A1200000023130815
:1001100064620000003649552250000000000503CB
:1001200000000000001C2241000000000041221CD1
:100130000000000000082A1C2A0800000008083EF1
:100140000808000000A06000000000000008080887
:100150000808000000606000000000000020100897
:1001600004020000003E5149453E00000000427F6D
:100170004000000000625149494600000022414908
:1001800049360000001814127F1000000027454572
:1001900045390000003C4A4949300000000171091E
:1001A0000503000000364949493600000006494968
:1001B000291E000000003636000000000000AC6C74
:1001C0000000000000081422410000000014141474
:1001D0001414000000412214080000000002015124
:1001E0000906000000324979413E0000007E0909FD
:1001F000097E0000007F494949360000003E414128
:1002000041220000007F4141221C0000007F49493B
:1002100049410000007F090909010000003E4141F9
:1002200051720000007F0808087F000000417F41F4
:1002300000000000002040413F010000007F081442
:1002400022410000007F404040400000007F020C3F
:10025000027F0000007F0408107F0000003E414143
:10026000413E0000007F090909060000003E41519F
:10027000215E0000007F0919294600000026494937
:10028000493200000001017F01010000003F4040B1
:10029000403F0000001F2040201F0000003F40386A
:1002A000403F00000063140814630000000304785A
:1002B000040300000061514945430000007F4141B3
:1002C0000000000000020408102000000041417FEF
:1002D0000000000000040201020400000080808091
:1002E000808000000001020400000000002054543F
:1002F00054780000007F48444438000000384444EB
:100300002800000000384444487F0000003854545E
:100310005418000000087E09020000000018A4A480
:10032000A47C0000007F08040478000000007D0029
:10033000000000000080847D00000000007F102885
:100340004400000000417F4000000000007C0418D1
:1003500004780000007C08047C000000003844445D
:100360003800000000FC2424180000000018242499
:10037000FC00000000007C08040000000048545409
:100380002400000000047F4400000000003C4040C6
:100390007C000000001C2040201C0000003C40307D
:1003A000403C00000044281028440000001CA0A08D
:1003B0007C000000004464544C44000000083641B6
:1003C0000000000000007F0000000000004136082F
:1003D000000000000002010102010000000205050A
:1003E0000200000011241FBECFEFD1E2DEBFCDBF5F
:1003F00000E00CBF12E0A0E0B2E0E6E3FEE000E0C7
:100400000BBF02C007900D92A431B107D9F720E1CC
:10041000A4E1B2E001C01D92A032B207E1F70DD114
:1004200008C5EECDEAE7F0E090819C689083ECE7A8
:10043000F0E0808390819062908321E030E0A90118
:1004400002C0440F551F8A95E2F7EEE7F0E04083C3
:100450008081809580838FEF80937D000895089A36
:10046000109A2FEF83ED90E3215080409040E1F708
:1004700000C0000082E18093B800E9EBF0E08081E9
:100480008C7F808385E08093BC00089594EA9093EC
:10049000BC00ECEBF0E090819923ECF79091B9006F
:1004A000987F983099F48093BB0084E88093BC00D7
:1004B000ECEBF0E080818823ECF78091B900887F35
:1004C000883131F0803231F083E0089580E0089582
:1004D00081E0089582E008958093BB0084E88093D2
:1004E000BC00ECEBF0E080818823ECF78091B90050
:1004F000887F883221F0803321F082E0089580E007
:10050000089581E0089584E98093BC00ECEBF0E06D
:10051000808184FDFDCF089510928000E1E8F0E035
:100520001082109285001092840020812B6020831D
:100530009C0140E050E060E970ED83E090E03BD446
:10054000215031093093890020938800EFE6F0E0D4
:100550008081826080830895EF92FF920F931F93B2
:10056000CF93DF93CDB7DEB7FC010DB71EB78091F7
:1005700011079091120707962DB73EB7281B390B2C
:100580000FB6F8943EBF0FBE2DBF8DB79EB7019634
:100590007C018091110790911207079625E5ADB770
:1005A000BEB711962C932AEAD70111962C93119776
:1005B00012969C93129713968C93139782E014963D
:1005C0008C93A0911107B0911207AE0DBF1D159627
:1005D0001C92A0911107B0911207AE0DBF1D169687
:1005E0001C928091110790911207059606978CF046
:1005F000D701159645E050E091919D934F5F5F4F75
:1006000020911107309112072B5F3F4F421753077C
:100610009CF360911107709112076A5F7F4FC701C9
:10062000A3D30FB6F8941EBF0FBE0DBFDF91CF91BD
:100630001F910F91FF90EF90089580E0F3DE80E12D
:1006400090E066D380E190E075D309DFBAD223D37E
:1006500074D2789484E690E05FDF332433940F2ED5
:10066000F4E1CF2EF0E1DF2EF02D0F2EF8E88F2EE3
:10067000912CF02D0F2EF3E02F2EF02D0F2EF9EEF2
:10068000EF2EF3E0FF2EF02D0F2EF2E16F2EFFE0A4
:100690007F2EF02D0F2EF0E2AF2EF2E0BF2EF02DC8
:1006A00004E213E0CAE1DBE080911F02823009F42A
:1006B0007DC0833009F4EBC08130B1F78091040232
:1006C0008111F2CF30920402F601858180931E02DF
:1006D000968190931D02811117C080911C02811197
:1006E00003C090931B0209C0813019F490931A0241
:1006F00004C0823011F49093190240911902609164
:100700001A0280911B0223D280911E02813091F443
:1007100080911C02823019F410921C022AC08111AF
:1007200003C030921C0225C0813019F5F2E0F0932D
:100730001C021FC0823099F480911802811121C1DE
:100740004091190260911A0280911B0200D23092EE
:10075000180240E060E080E0FAD110921802809127
:100760001E02833031F410921B0210921A02109272
:10077000190285E588838AEA89831A828BE08B8354
:100780003C8280911C028D8380911B028E8380911C
:100790001A028F8380911902888719861A866AE067
:1007A00070E0CE01E1D210921F027ECF8091040250
:1007B000811149C0F60185818093130B8681809356
:1007C000250B2091130B8091250B90E0922B909399
:1007D000121080931110878190E090930F0F8093F7
:1007E0000E0F808590E09093110F8093100F8091F1
:1007F0000E0F90910F0F2091100F3091110F982F25
:100800008827822B932B9093120780931107809156
:10081000111090911210809111109091121020914E
:10082000111030911210032E000C440B550B60E98F
:1008300070ED83E090E0BFD221503109F4013183A3
:100840002083309204028091190B813009F02CCF63
:1008500080910302813059F4809102028130A1F429
:1008600086E29BE079DEF2E0F09302020DC0809117
:100870000302811109C080910202823029F489E2C9
:1008800093E06ADE309202021092190B0DCF809134
:100890000402811109CF3092040240E050E065E08B
:1008A00070E086E092E0FBD180E197E235DE2092B5
:1008B0001B028FEF80931A021092260340E044241B
:1008C0004A94512C4F5F4093190260911A02809113
:1008D0001B023DD189EE93E0442D252D30911F1050
:1008E000341710F440911F1030911F10231710F48B
:1008F00020911F10019791F7F0922803E0922703AF
:100900002093170B4093160B822F90E0841B9109C4
:100910009C0112F42F5F3F4F359527952093180BBC
:1009200040912603E42FF0E0EE5EF04F20834F5F0E
:10093000409326034F3F31F6F3012081209313109B
:1009400085E5F50180838AEA8183328286E08383AC
:100950002482A2E1BFE0E5E2F2E08D91622F1FD296
:100960008193E017F107C9F78FEF80932603F80111
:100970001082E5E2F3E0108265E071E0C501F4D198
:1009800093CE813009F0F5CEE4CE1F920F920FB6D0
:100990000F9211240BB60F928F93EF93FF93EAE718
:1009A000F0E0808180648083FF91EF918F910F90C0
:1009B0000BBE0F900FBE0F901F9018951F920F92B5
:1009C0000FB60F9211240BB60F922F933F938F9374
:1009D0009F93EF93FF938091790080931F108091F4
:1009E0000302813011F58091160290911702209137
:1009F0007900FC01E75DFC4F20830196909317027C
:100A0000809316022091110730911207215031096D
:100A1000281739075CF510921702109216021092EF
:100A2000030281E08093190B21C0809116029091FE
:100A3000170220917900FC01EA5DF44F20830196B2
:100A4000909317028093160220911107309112079C
:100A500021503109281739074CF4109217021092CF
:100A6000160281E0809303028093190BFF91EF91AE
:100A70009F918F913F912F910F900BBE0F900FBEC2
:100A80000F901F9018951F920F920FB60F9211247E
:100A90000BB60F922F933F938F939F93EF93FF93F8
:100AA00080911402909115022091CE00FC01EC5E21
:100AB000FF4E20830196909315028093140220919B
:100AC0001810213041F420931F0229E030E03093C8
:100AD00001022093000220911810223041F420934B
:100AE0001F022BE030E0309301022093000220919E
:100AF0001810233041F420931F0227E030E0309398
:100B0000010220930002209100023091010282171D
:100B1000930731F4109215021092140210920402FD
:100B2000FF91EF919F918F913F912F910F900BBE6D
:100B30000F900FBE0F901F90189584B1876084B9F5
:100B40008CB580658CBD8CB583608CBD08957AE5CD
:100B5000542F57275627582721E028987EBD0DB4DB
:100B600007FEFDCF3EB525B928988EBD0DB407FE12
:100B7000FDCF9EB525B928986EBD0DB407FEFDCFFB
:100B800025B928984EBD0DB407FEFDCF25B928988C
:100B90005EBD0DB407FEFDCF25B9330F991F992710
:100BA000991F932B5913D9CF0895CF93C82F8091B4
:100BB00005026CDC80E090DC8C2F8EDCA4DCCF9115
:100BC00008958EEAF2DF85EDF0DF80E8EEDF88EA57
:100BD000ECDF8FE3EADF83EDE8DF80E0E6DF80E44F
:100BE000E4DF8DE8E2DF84E1E0DF80E2DEDF80E069
:100BF000DCDF81EADADF88ECD8DF8AEDD6DF82E15C
:100C0000D4DF81E8D2DF8FECD0DF89EDCEDF81EF5A
:100C1000CCDF8BEDCADF80E4C8DF84EAC6DF86EA7A
:100C2000C4DF8FEAC2CF08958FEABFCF08958EEA5E
:100C3000BCCF0895CF93C82F8091050227DC80E4B4
:100C40004BDC8C2F49DC5FDCCF910895CF93C62F0E
:100C50008055ABDF8C2F880F880F880F8870A5DF39
:100C60008C2F90E0969587958F70805F9EDFCF9157
:100C70000895CF93DF93D0E060E08D2FE7DFC0E0F1
:100C800080E0D8DFCF5FC038D9F7DF5FD830A1F779
:100C9000DF91CF910895CBDFECDFC6CF0895FF92AF
:100CA0000F931F93CF93DF93EC01862FF62E642FC3
:100CB000CDDF9881992331F1F3949A3039F460E0D3
:100CC0008F2DC4DF8E010F5F1F4F01C08E01C0E06A
:100CD000D0E0D801EC91F0E0EE0FFF1FEE0FFF1F08
:100CE000EE0FFF1FEC51F040EC0FFD1F8491A2DFCF
:100CF0002196C830D10569F7E8012196F801918164
:100D00009111DBCFDF91CF911F910F91FF9008954B
:100D100022E02093C800E9ECF0E0208128692083DC
:100D2000EAECF0E02081266020839093CD00809350
:100D3000CC00089522E02093C000E1ECF0E0208197
:100D400028612083E2ECF0E02081266020839093EC
:100D5000C5008093C4000895E8ECF0E0908195FF11
:100D6000FDCF8093CE000895EF92FF920F931F93D3
:100D7000CF93DF938C017B01772354F0C0E0D0E068
:100D8000F80181918F01E8DF2196EC16FD06C4F78A
:100D9000DF91CF911F910F91FF90EF900895991BD4
:100DA00079E004C0991F961708F0961B881F7A9562
:100DB000C9F780950895052E97FB16F400940FD07F
:100DC00057FD05D014D007FC02D046F408C050955A
:100DD0004095309521953F4F4F4F5F4F0895909527
:100DE0008095709561957F4F8F4F9F4F0895A1E239
:100DF0001A2EAA1BBB1BFD010DC0AA1FBB1FEE1F95
:100E0000FF1FA217B307E407F50720F0A21BB30BDF
:100E1000E40BF50B661F771F881F991F1A9469F75B
:100E200060957095809590959B01AC01BD01CF01B7
:060E30000895F894FFCFC5
:100E36000B0001010178426F6465706C6F742020AD
:040E46002020000068
:00000001FF
