:10000000F1C100000EC200000CC200000AC20000D4
:1000100008C2000006C2000004C2000002C20000C4
:1000200000C20000FEC10000FCC10000FAC10000D7
:10003000F8C10000F6C10000F4C10000F2C10000E8
:10004000F0C1000097C40000ECC10000EAC100004C
:10005000E8C10000E6C10000E4C10000E2C1000008
:10006000E0C10000DEC10000DCC10000DAC1000018
:10007000D8C1000098C40000D4C10000D2C1000063
:10008000D0C10000CEC10000CCC10000CAC1000038
:10009000EFC40000C6C10000C4C10000C2C100001E
:1000A000C0C10000BEC10000BCC10000BAC1000058
:1000B000B8C10000B6C10000B4C10000B2C1000068
:1000C000B0C10000AEC10000ACC10000AAC1000078
:1000D000A8C10000A6C10000A4C10000A2C1000088
:1000E000A0C10000000000000000000000005F0050
:1000F00000000000000007000700000000147F144B
:100100007F14000000242A7F2A1200000023130815
:1001100064620000003649552250000000000503CB
:1001200000000000001C2241000000000041221CD1
:100130000000000000082A1C2A0800000008083EF1
:100140000808000000A06000000000000008080887
:100150000808000000606000000000000020100897
:1001600004020000003E5149453E00000000427F6D
:100170004000000000625149494600000022414908
:1001800049360000001814127F1000000027454572
:1001900045390000003C4A4949300000000171091E
:1001A0000503000000364949493600000006494968
:1001B000291E000000003636000000000000AC6C74
:1001C0000000000000081422410000000014141474
:1001D0001414000000412214080000000002015124
:1001E0000906000000324979413E0000007E0909FD
:1001F000097E0000007F494949360000003E414128
:1002000041220000007F4141221C0000007F49493B
:1002100049410000007F090909010000003E4141F9
:1002200051720000007F0808087F000000417F41F4
:1002300000000000002040413F010000007F081442
:1002400022410000007F404040400000007F020C3F
:10025000027F0000007F0408107F0000003E414143
:10026000413E0000007F090909060000003E41519F
:10027000215E0000007F0919294600000026494937
:10028000493200000001017F01010000003F4040B1
:10029000403F0000001F2040201F0000003F40386A
:1002A000403F00000063140814630000000304785A
:1002B000040300000061514945430000007F4141B3
:1002C0000000000000020408102000000041417FEF
:1002D0000000000000040201020400000080808091
:1002E000808000000001020400000000002054543F
:1002F00054780000007F48444438000000384444EB
:100300002800000000384444487F0000003854545E
:100310005418000000087E09020000000018A4A480
:10032000A47C0000007F08040478000000007D0029
:10033000000000000080847D00000000007F102885
:100340004400000000417F4000000000007C0418D1
:1003500004780000007C08047C000000003844445D
:100360003800000000FC2424180000000018242499
:10037000FC00000000007C08040000000048545409
:100380002400000000047F4400000000003C4040C6
:100390007C000000001C2040201C0000003C40307D
:1003A000403C00000044281028440000001CA0A08D
:1003B0007C000000004464544C44000000083641B6
:1003C0000000000000007F0000000000004136082F
:1003D000000000000002010102010000000205050A
:1003E0000200000011241FBECFEFD1E2DEBFCDBF5F
:1003F00000E00CBF12E0A0E0B2E0E0E2FEE000E0CE
:100400000BBF02C007900D92A231B107D9F720E1CE
:10041000A2E1B2E001C01D92AE31B207E1F71FD1F7
:10042000FDC4EECDEAE7F0E090819C689083ECE7B4
:10043000F0E0808390819062908321E030E0A90118
:1004400002C0440F551F8A95E2F7EEE7F0E04083C3
:100450008081809580838FEF80937D000895089A36
:10046000109A2FEF83ED90E3215080409040E1F708
:1004700000C0000082E18093B800E9EBF0E08081E9
:100480008C7F808385E08093BC00089594EA9093EC
:10049000BC00ECEBF0E090819923ECF79091B9006F
:1004A000987F983099F48093BB0084E88093BC00D7
:1004B000ECEBF0E080818823ECF78091B900887F35
:1004C000883131F0803231F083E0089580E0089582
:1004D00081E0089582E008958093BB0084E88093D2
:1004E000BC00ECEBF0E080818823ECF78091B90050
:1004F000887F883221F0803321F082E0089580E007
:10050000089581E0089584E98093BC00ECEBF0E06D
:10051000808184FDFDCF089510928000E1E8F0E035
:100520001082109285001092840020812B6020831D
:100530009C0140E050E060E970ED83E090E030D451
:10054000215031093093890020938800EFE6F0E0D4
:100550008081826080830895EF92FF920F931F93B2
:10056000CF93DF93CDB7DEB7FC010DB71EB78091F7
:100570000F079091100707962DB73EB7281B390B30
:100580000FB6F8943EBF0FBE2DBF8DB79EB7019634
:100590007C0180910F0790911007079625E5ADB774
:1005A000BEB711962C932AEAD70111962C93119776
:1005B00012969C93129713968C93139782E014963D
:1005C0008C93A0910F07B0911007AE0DBF1D15962B
:1005D0001C92A0910F07B0911007AE0DBF1D16968B
:1005E0001C9280910F0790911007059606978CF04A
:1005F000D701159645E050E091919D934F5F5F4F75
:1006000020910F07309110072B5F3F4F4217530780
:100610009CF360910F07709110076A5F7F4FC701CD
:1006200098D30FB6F8941EBF0FBE0DBFDF91CF91C8
:100630001F910F91FF90EF900895E8E1FBE095E5A1
:1006400090839AEA918312829BE0938391E0948352
:10065000858366834783208711861286089580E00C
:10066000E1DE80E190E049D380E190E058D3F7DE0D
:100670009DD206D357D2789484E690E04DDF0F2EBA
:10068000F2E1CF2EF0E1DF2EF02D0F2EF8E8AF2EA5
:10069000B12CF02D772473940F2EF3E08F2EF02DD4
:1006A00099249A9409EE13E00F2EF0E12F2EFFE02B
:1006B0003F2EF02D0F2EFEE1EF2EF2E0FF2EF02D5B
:1006C0000F2EF5E56F2EF02DC2E2D3E080911D02D2
:1006D000823009F47AC0833009F4CFC08130B1F799
:1006E000F601858180931C02968190931B028111F3
:1006F00020C080911A02811103C09093190209C091
:10070000813019F49093180204C0823011F4909350
:1007100017024091170260911802809119020CD2C1
:1007200020911702409118026091190280911A02DB
:1007300084DF80911C02813099F480911A028F5FCE
:10074000833018F480931A0202C010921A0220918A
:100750001702409118026091190280911A026DDF10
:1007600080911C02823071F580911602811106C0C1
:1007700040E060E0E1D17092160202C0813049F49D
:10078000409117026091180280911902D5D1109200
:10079000160220911702409118026091190280916F
:1007A0001A024BDF80911C02823061F41092190210
:1007B000109218021092170220E040E060E0809151
:1007C0001A023BDF10921D0281CF8091030281113A
:1007D00041C0F60185818093110B86818093230BA4
:1007E0002091110B8091230B90E0922B909310108D
:1007F00080930F10878190E090930D0F80930C0FE2
:10080000808590E090930F0F80930E0F80910C0FD6
:1008100090910D0F20910E0F30910F0F982F882778
:10082000822B932B9093100780930F0720910F102A
:1008300030911010032E000C440B550B60E970ED45
:1008400083E090E0ADD221503109F501318320835E
:10085000709203028091170B813009F037CF80919D
:100860000202813021F484E29BE076DE03C087E25D
:1008700093E072DE1092170B29CF40E050E065E064
:1008800070E085E092E000D220910F1030911010BE
:10089000032E000C440B550B60E970ED83E090E0F3
:1008A0007FD221503109F5013183208380921902D2
:1008B000909218021092240340E0512C4F5F409315
:1008C0001702609118028091190236D189EE93E0E7
:1008D000492D252D30911D10341710F440911D1015
:1008E00030911D10231710F420911D10019791F7DE
:1008F00010932603009325032093150B4093140BAC
:10090000822F90E0841B91099C0112F42F5F3F4FCE
:10091000359527952093160B40912403E42FF0E0A2
:10092000E05FF04F20834F5F409324034F3F31F649
:10093000F101208120931110F70160828AEA8183FE
:10094000728286E083838482A0E1BFE0E3E2F2E08A
:100950008D91622F19D28193EC17FD07C9F7909200
:1009600024031882E3E2F3E0108265E071E0C7013E
:10097000F0D1ACCE1F920F920FB60F9211240BB68E
:100980000F928F93EF93FF93EAE7F0E0808180640A
:100990008083FF91EF918F910F900BBE0F900FBE50
:1009A0000F901F9018951F920F920FB60F9211245F
:1009B0000BB60F922F933F938F939F93EF93FF93D9
:1009C0008091790080931D1080910202813011F591
:1009D000809114029091150220917900FC01E95D4B
:1009E000FC4F20830196909315028093140220916E
:1009F0000F073091100721503109281739075CF58E
:100A000010921502109214021092020281E080935B
:100A1000170B21C08091140290911502209179004A
:100A2000FC01EC5DF44F20830196909315028093B6
:100A3000140220910F073091100721503109281717
:100A400039074CF4109215021092140281E0809341
:100A500002028093170BFF91EF919F918F913F912D
:100A60002F910F900BBE0F900FBE0F901F901895F7
:100A70001F920F920FB60F9211240BB60F922F9365
:100A80003F938F939F93EF93FF93809112029091E6
:100A900013022091CE00FC01EE5EFF4E20830196F2
:100AA000909313028093120220911610213041F48A
:100AB00020931D0229E030E03093010220930002D0
:100AC00020911610223041F420931D022BE030E0DB
:100AD000309301022093000220911610233041F43C
:100AE00020931D0227E030E03093010220930002A2
:100AF00020910002309101028217930721F4109295
:100B000013021092120210920302FF91EF919F9133
:100B10008F913F912F910F900BBE0F900FBE0F90B2
:100B20001F90189584B1876084B98CB580658CBDA1
:100B30008CB583608CBD08957AE5542F57275627CE
:100B4000582721E028987EBD0DB407FEFDCF3EB5A5
:100B500025B928988EBD0DB407FEFDCF9EB525B9E9
:100B600028986EBD0DB407FEFDCF25B928984EBD5F
:100B70000DB407FEFDCF25B928985EBD0DB407FE64
:100B8000FDCF25B9330F991F9927991F932B59131F
:100B9000D9CF0895CF93C82F8091040277DC80E0ED
:100BA0009BDC8C2F99DCAFDCCF9108958EEAF2DFCD
:100BB00085EDF0DF80E8EEDF88EAECDF8FE3EADF47
:100BC00083EDE8DF80E0E6DF80E4E4DF8DE8E2DF6C
:100BD00084E1E0DF80E2DEDF80E0DCDF81EADADF93
:100BE00088ECD8DF8AEDD6DF82E1D4DF81E8D2DF7E
:100BF0008FECD0DF89EDCEDF81EFCCDF8BEDCADF6C
:100C000080E4C8DF84EAC6DF86EAC4DF8FEAC2CFA9
:100C100008958FEABFCF08958EEABCCF0895CF9391
:100C2000C82F8091040232DC80E456DC8C2F54DC27
:100C30006ADCCF910895CF93C62F8055ABDF8C2F00
:100C4000880F880F880F8870A5DF8C2F90E096950D
:100C500087958F70805F9EDFCF910895CF93DF934C
:100C6000D0E060E08D2FE7DFC0E080E0D8DFCF5F2D
:100C7000C038D9F7DF5FD830A1F7DF91CF91089561
:100C8000CBDFECDFC6CF0895FF920F931F93CF9376
:100C9000DF93EC01862FF62E642FCDDF9881992308
:100CA00031F1F3949A3039F460E08F2DC4DF8E0176
:100CB0000F5F1F4F01C08E01C0E0D0E0D801EC9162
:100CC000F0E0EE0FFF1FEE0FFF1FEE0FFF1FEC51C6
:100CD000F040EC0FFD1F8491A2DF2196C830D105B2
:100CE00069F7E8012196F80191819111DBCFDF913D
:100CF000CF911F910F91FF90089522E02093C8009B
:100D0000E9ECF0E0208128692083EAECF0E0208122
:100D1000266020839093CD008093CC00089522E03C
:100D20002093C000E1ECF0E0208128612083E2EC18
:100D3000F0E02081266020839093C5008093C4005A
:100D40000895E8ECF0E0908195FFFDCF8093CE0010
:100D50000895EF92FF920F931F93CF93DF938C012F
:100D60007B01772354F0C0E0D0E0F80181918F013E
:100D7000E8DF2196EC16FD06C4F7DF91CF911F91B5
:100D80000F91FF90EF900895991B79E004C0991F8F
:100D9000961708F0961B881F7A95C9F780950895D5
:100DA000052E97FB16F400940FD057FD05D014D0F4
:100DB00007FC02D046F408C0509540953095219527
:100DC0003F4F4F4F5F4F0895909580957095619577
:100DD0007F4F8F4F9F4F0895A1E21A2EAA1BBB1B76
:100DE000FD010DC0AA1FBB1FEE1FFF1FA217B307F7
:100DF000E407F50720F0A21BB30BE40BF50B661F0D
:100E0000771F881F991F1A9469F7609570958095D0
:100E100090959B01AC01BD01CF010895F894FFCFDF
:100E20000B00010178426F6465706C6F74202020A4
:020E30002000A0
:00000001FF
