S01300004F7363696C6F73636F70652E737265638E
S1130000F1C100000EC200000CC200000AC20000D0
S113001008C2000006C2000004C2000002C20000C0
S113002000C20000FEC10000FCC10000FAC10000D3
S1130030F8C10000F6C10000F4C10000F2C10000E4
S1130040F0C10000AEC40000ECC10000EAC1000031
S1130050E8C10000E6C10000E4C10000E2C1000004
S1130060E0C10000DEC10000DCC10000DAC1000014
S1130070D8C10000AFC40000D4C10000D2C1000048
S1130080D0C10000CEC10000CCC10000CAC1000034
S113009008C50000C6C10000C4C10000C2C1000000
S11300A0C0C10000BEC10000BCC10000BAC1000054
S11300B0B8C10000B6C10000B4C10000B2C1000064
S11300C0B0C10000AEC10000ACC10000AAC1000074
S11300D0A8C10000A6C10000A4C10000A2C1000084
S11300E0A0C10000000000000000000000005F004C
S11300F000000000000007000700000000147F1447
S11301007F14000000242A7F2A1200000023130811
S113011064620000003649552250000000000503C7
S113012000000000001C2241000000000041221CCD
S11301300000000000082A1C2A0800000008083EED
S11301400808000000A06000000000000008080883
S11301500808000000606000000000000020100893
S113016004020000003E5149453E00000000427F69
S11301704000000000625149494600000022414904
S113018049360000001814127F100000002745456E
S113019045390000003C4A4949300000000171091A
S11301A00503000000364949493600000006494964
S11301B0291E000000003636000000000000AC6C70
S11301C00000000000081422410000000014141470
S11301D01414000000412214080000000002015120
S11301E00906000000324979413E0000007E0909F9
S11301F0097E0000007F494949360000003E414124
S113020041220000007F4141221C0000007F494937
S113021049410000007F090909010000003E4141F5
S113022051720000007F0808087F000000417F41F0
S113023000000000002040413F010000007F08143E
S113024022410000007F404040400000007F020C3B
S1130250027F0000007F0408107F0000003E41413F
S1130260413E0000007F090909060000003E41519B
S1130270215E0000007F0919294600000026494933
S1130280493200000001017F01010000003F4040AD
S1130290403F0000001F2040201F0000003F403866
S11302A0403F000000631408146300000003047856
S11302B0040300000061514945430000007F4141AF
S11302C00000000000020408102000000041417FEB
S11302D0000000000004020102040000008080808D
S11302E0808000000001020400000000002054543B
S11302F054780000007F48444438000000384444E7
S11303002800000000384444487F0000003854545A
S11303105418000000087E09020000000018A4A47C
S1130320A47C0000007F08040478000000007D0025
S1130330000000000080847D00000000007F102881
S11303404400000000417F4000000000007C0418CD
S113035004780000007C08047C0000000038444459
S11303603800000000FC2424180000000018242495
S1130370FC00000000007C08040000000048545405
S11303802400000000047F4400000000003C4040C2
S11303907C000000001C2040201C0000003C403079
S11303A0403C00000044281028440000001CA0A089
S11303B07C000000004464544C44000000083641B2
S11303C00000000000007F0000000000004136082B
S11303D00000000000020101020100000002050506
S11303E00200000011241FBECFEFD1E2DEBFCDBF5B
S11303F000E00CBF12E0A0E0B2E0E2E6F2E100E0CF
S11304000BBF02C007900D92AC32B107D9F720E1BF
S1130410ACE2B2E001C01D92A833B207E1F73AD1D1
S11304201EC7EECDEAE7F0E090819C689083ECE78C
S1130430F0E0808390819066908321E030E0A90110
S113044002C0440F551F8A95E2F7EEE7F0E04083BF
S11304508081809580838FEF80937D000895089A32
S1130460109A2FEF83ED90E3215080409040E1F704
S113047000C0000082E18093B800E9EBF0E08081E5
S11304808C7F808385E08093BC00089594EA9093E8
S1130490BC00ECEBF0E090819923ECF79091B9006B
S11304A0987F983099F48093BB0084E88093BC00D3
S11304B0ECEBF0E080818823ECF78091B900887F31
S11304C0883131F0803231F083E0089580E008957E
S11304D081E0089582E008958093BB0084E88093CE
S11304E0BC00ECEBF0E080818823ECF78091B9004C
S11304F0887F883221F0803321F082E0089580E003
S1130500089581E0089584E98093BC00ECEBF0E069
S1130510808184FDFDCF089510928000E1E8F0E031
S11305201082109285001092840020812B60208319
S1130530BC0180E090E063D59B01AC0160E070E415
S11305408CE196E4C8D420E030E048EC51E4E5D5F1
S113055020E030E040E85FE359D425D5709389006A
S113056060938800EFE6F0E08081826080830895E4
S1130570EF92FF920F931F93CF93DF93CDB7DEB724
S11305800DB71EB78091290790912A0707962DB7BA
S11305903EB7281B390B0FB6F8943EBF0FBE2DBFD4
S11305A08DB79EB701967C018091290790912A0707
S11305B0079625E5EDB7FEB721832AEAF7012183E3
S11305C09283838382E08483E0912907F0912A0750
S11305D0EE0DFF1D1582E0912907F0912A07EE0D1B
S11305E0FF1D1682809102028130E1F48091290777
S11305F090912A0704960597C4F0F701359625E0F3
S113060030E0D901A45CBC4F8C9181932F5F3F4FA4
S11306104091290750912A074C5F5F4F42175307B7
S113062084F705C025E030E002C025E030E0809189
S113063002028230D9F48091290790912A07049606
S1130640821793079CF0F701E20FF31FD901A75C0F
S1130650B44F9C9191932F5F3F4F40912907509144
S11306602A074C5F5F4F4217530784F760912907AD
S113067070912A076A5F7F4FC701ADD30FB6F89414
S11306801EBF0FBE0DBFDF91CF911F910F91FF9041
S1130690EF900895CF93DF9300D01F921F92CDB7B0
S11306A0DEB780E0BFDE80E190E069D380E190E0D6
S11306B078D3D5DE92D2FBD24CD278948AE090E003
S11306C02BDF44244394542C0F2EFCE28F2EF0E1B4
S11306D09F2EF02D0F2EF3E03F2EF02D0F2EF9EE6E
S11306E0CF2EF3E0DF2EF02D0F2EF8E3AF2EF2E045
S11306F0BF2EF02D0CE313E00F2EF2E3EF2EFBE000
S1130700FF2EF02D5092310B1092310B8091371047
S11307104AE0BE016F5F7F4F90E06ED541E050E04C
S113072061E070E0CE010196F1D288E292E0C3D29A
S113073080913702823009F478C0833009F4B8C05C
S1130740813001F740E050E065E070E084E092E041
S1130750DDD2F4018581809336029681909335022F
S1130760811117C080913402811103C09093330228
S113077009C0813019F49093320204C0823011F41C
S113078090933102409131026091320280913302A0
S1130790EAD180913602813059F48091340282305A
S11307A019F41092340223C08F5F809334021FC067
S11307B0823099F4809130028111EFC0409131026E
S11307C06091320280913302CED15092300240E0E7
S11307D060E080E0C8D1109230028091360283300C
S11307E031F410923302109232021092310285E5F4
S11307F0F70180838AEA818312828BE083834482B7
S11308008091340285838091330286838091320201
S11308108783809131028087118612866AE070E0B6
S1130820C701D9D2109237026DCF40E050E065E0A5
S113083070E081E192E06AD2F401858180932B0B10
S1130840868180933D0B20912B0B80913D0B90E092
S1130850922B90932A1080932910878190E0909393
S1130860270F8093260F808590E09093290F809323
S1130870280F8091260F9091270F2091280F3091F7
S1130880290F982F8827822B932B90932A078093E4
S113089029078091291090912A103EDE8091290722
S11308A090912A07181619060CF02CCF61DE2ACF76
S11308B040E050E065E070E08EE192E027D280E114
S11308C097E22ADE309233028FEF80933202109245
S11308D03E0340E066246A94712C4F5F40933102DA
S11308E060913202809133023ED189EE93E0462D2D
S11308F0272D30913710341710F440913710309170
S11309003710231710F420913710019791F7D092E4
S11309104003C0923F0320932F0B40932E0B822F52
S113092090E0841B91099C0112F42F5F3F4F359591
S113093027952093300B40913E03E42FF0E0E65DD1
S1130940F04F20834F5F40933E034F3F31F6EAE27E
S1130950FFE0208120932B1085E5F50180838AEA4E
S11309608183428286E083833482AAE2BFE0EDE39E
S1130970F2E08D91622F34D48193E017F107C9F727
S11309808FEF80933E03F8011082EDE3F3E01082D1
S113099065E071E0C5011FD2B5CE813009F027CFE3
S11309A016CF1F920F920FB60F9211240BB60F920F
S11309B08F93EF93FF93EAE7F0E080818064808374
S11309C0FF91EF918F910F900BBE0F900FBE0F9080
S11309D01F9018951F920F920FB60F9211240BB609
S11309E00F922F933F938F939F93EF93FF93809155
S11309F0790080933710809102028130F9F480915C
S1130A002E0290912F0220917900FC01EF5BFC4FA4
S1130A102083019690932F0280932E022091290720
S1130A2030912A0721503109821793073CF0109224
S1130A302F0210922E0282E0809302028091020221
S1130A408230F9F480912E0290912F022091790046
S1130A50FC01E25CF44F2083019690932F02809373
S1130A602E022091290730912A072150310982173B
S1130A7093073CF010922F0210922E0281E0809393
S1130A80020281E08093310BFF91EF919F918F914E
S1130A903F912F910F900BBE0F900FBE0F901F90A0
S1130AA018951F920F920FB60F9211240BB60F9246
S1130AB02F933F938F939F93EF93FF9380912C02F7
S1130AC090912D022091CE00FC01E45DFF4E208325
S1130AD0019690932D0280932C02209130102130A6
S1130AE041F42093370229E030E03093010220934F
S1130AF0000220913010223041F4209337022BE081
S1130B0030E0309301022093000220913010233012
S1130B1041F42093370227E030E030930102209320
S1130B20000220910002309101028217930721F400
S1130B3010922D0210922C02FF91EF919F918F91B0
S1130B403F912F910F900BBE0F900FBE0F901F90EF
S1130B50189584B1876084B98CB580658CBD8CB5DB
S1130B6083608CBD08957AE5542F5727562758275C
S1130B7021E028987EBD0DB407FEFDCF3EB525B912
S1130B8028988EBD0DB407FEFDCF9EB525B92898D3
S1130B906EBD0DB407FEFDCF25B928984EBD0DB42A
S1130BA007FEFDCF25B928985EBD0DB407FEFDCF25
S1130BB025B9330F991F9927991F932B5913D9CF0F
S1130BC00895CF93C82F8091030260DC80E084DC19
S1130BD08C2F82DC98DCCF9108958EEAF2DF85EDCC
S1130BE0F0DF80E8EEDF88EAECDF8FE3EADF83ED15
S1130BF0E8DF80E0E6DF80E4E4DF8DE8E2DF84E143
S1130C00E0DF80E2DEDF80E0DCDF81EADADF88EC4F
S1130C10D8DF8AEDD6DF82E1D4DF81E8D2DF8FEC42
S1130C20D0DF89EDCEDF81EFCCDF8BEDCADF80E44E
S1130C30C8DF84EAC6DF86EAC4DF8FEAC2CF08953C
S1130C408FEABFCF08958EEABCCF0895CF93C82F03
S1130C50809103021BDC80E43FDC8C2F3DDC53DC01
S1130C60CF910895CF93C62F8055ABDF8C2F880F7B
S1130C70880F880F8870A5DF8C2F90E09695879554
S1130C808F70805F9EDFCF910895CF93DF93D0E084
S1130C9060E08D2FE7DFC0E080E0D8DFCF5FC038B1
S1130CA0D9F7DF5FD830A1F7DF91CF910895CBDF7B
S1130CB0ECDFC6CF08950F931F93CF93DF938C017E
S1130CC0DC018C9181111AC01CC0D801EC91F0E0B8
S1130CD0EE0FFF1FEE0FFF1FEE0FFF1FEC51F04052
S1130CE0EC0FFD1F8491B2DF2196C830D10569F75E
S1130CF00F5F1F4FF8018081882319F0C0E0D0E016
S1130D00E4CFDF91CF911F910F910895FF920F933C
S1130D101F93CF93DF93EC01862FF62E642FA2DF6F
S1130D209881992331F1F3949A3039F460E08F2D4E
S1130D3099DF8E010F5F1F4F01C08E01C0E0D0E02C
S1130D40D801EC91F0E0EE0FFF1FEE0FFF1FEE0F46
S1130D50FF1FEC51F040EC0FFD1F849177DF2196CB
S1130D60C830D10569F7E8012196F8019181911104
S1130D70DBCFDF91CF911F910F91FF90089522E077
S1130D802093C800E9ECF0E0208128692083EAEC94
S1130D90F0E02081266020839093CD008093CC00E6
S1130DA0089522E02093C000E1ECF0E02081286166
S1130DB02083E2ECF0E02081266020839093C5003C
S1130DC08093C4000895E8ECF0E0908195FFFDCF96
S1130DD08093CE000895EF92FF920F931F93CF93C9
S1130DE0DF938C017B01772354F0C0E0D0E0F8015D
S1130DF081918F01E8DF2196EC16FD06C4F7DF919F
S1130E00CF911F910F91FF90EF9008955058BB27F9
S1130E10AA270ED048C139D130F03ED120F031F4A8
S1130E209F3F11F41EF42EC10EF4E095E7FB24C19C
S1130E30E92F4AD180F3BA1762077307840795072D
S1130E4018F071F49EF562C10EF4E0950B2EBA2FE2
S1130E50A02D0B01B90190010C01CA01A0011124BC
S1130E60FF27591B99F0593F50F4503E68F11A1668
S1130E70F040A22F232F342F4427585FF3CF4695F9
S1130E8037952795A795F0405395C9F77EF41F161B
S1130E90BA0B620B730B840BBAF09150A1F0FF0FE5
S1130EA0BB1F661F771F881FC2F70EC0BA0F621FD1
S1130EB0731F841F48F4879577956795B795F795C1
S1130EC09E3F08F0B3CF9395880F08F09927EE0F53
S1130ED09795879508950CD0E6C0DED040F0D5D024
S1130EE030F021F45F3F19F0C7C0511110C1CAC0DE
S1130EF0EBD098F39923C9F35523B1F3951B550B04
S1130F00BB27AA2762177307840738F09F5F5F4FD8
S1130F10220F331F441FAA1FA9F333D00E2E3AF019
S1130F20E0E830D091505040E695001CCAF729D033
S1130F30FE2F27D0660F771F881FBB1F2617370782
S1130F404807AB07B0E809F0BB0B802DBF01FF27B2
S1130F5093585F4F2AF09E3F510568F08DC0D7C06B
S1130F605F3FECF3983EDCF3869577956795B795EC
S1130F70F7959F5FC9F7880F911D9695879597F907
S1130F800895E1E0660F771F881FBB1F6217730780
S1130F908407BA0720F0621B730B840BBA0BEE1F95
S1130FA088F7E095089598D088F09F5790F0B92F6E
S1130FB09927B751A0F0D1F0660F771F881F991FAA
S1130FC01AF0BA95C9F712C0B13081F09FD0B1E0E0
S1130FD008959CC0672F782F8827B85F39F0B93FF0
S1130FE0CCF3869577956795B395D9F73EF49095AC
S1130FF08095709561957F4F8F4F9F4F0895E8942A
S113100009C097FB3EF490958095709561957F4F4C
S11310108F4F9F4F9923A9F0F92F96E9BB279395FA
S1131020F695879577956795B795F111F8CFFAF40A
S1131030BB0F11F460FF1BC06F5F7F4F8F4F9F4F3B
S113104016C0882311F096E911C0772321F09EE899
S1131050872F762F05C0662371F096E8862F70E0FF
S113106060E02AF09A95660F771F881FDAF7880FD9
S11310709695879597F9089597F99F6780E870E0AA
S113108060E008959FEF80EC089500240A941616FA
S1131090170618060906089500240A941216130662
S11310A0140605060895092E0394000C11F48823F0
S11310B052F0BB0F40F4BF2B11F460FF04C06F5F0C
S11310C07F4F8F4F9F4F089557FD9058440F551FE2
S11310D059F05F3F71F04795880F97FB991F61F0B6
S11310E09F3F79F087950895121613061406551F2D
S11310F0F2CF4695F1DF08C0161617061806991F99
S1131100F1CF86957105610508940895E894BB278D
S113111066277727CB0197F908950BD0C4CFB5DFA5
S113112028F0BADF18F0952309F0A6CFABCF11242D
S1131130EECFCADFA0F3959FD1F3950F50E0551F72
S1131140629FF001729FBB27F00DB11D639FAA2718
S1131150F00DB11DAA1F649F6627B00DA11D661F67
S1131160829F2227B00DA11D621F739FB00DA11D88
S1131170621F839FA00D611D221F749F3327A00D42
S1131180611D231F849F600D211D822F762F6A2FDE
S113119011249F5750408AF0E1F088234AF0EE0F63
S11311A0FF1FBB1F661F771F881F91505040A9F770
S11311B09E3F510570F060CFAACF5F3FECF3983E9D
S11311C0DCF3869577956795B795F795E7959F5FD7
S11311D0C1F7FE2B880F911D9695879597F9089571
S11311E0991B79E004C0991F961708F0961B881F75
S11311F07A95C9F780950895BB274A3031F499232D
S113120022F4BDE2909581959F4F01C0BB27FB015D
S11312105527AA27880F991FAA1FA41710F0A41BEB
S113122083955051B9F7A05DAA3308F0A95DA19345
S1131230009779F7B111B1931192CB0100C0DC0191
S1131240FC01672F71917723E1F7329704C07C91F9
S11312506D9370836291AE17BF07C8F30895F89435
S1051260FFCFBA
S11312620B00017847656E657261746F72202020ED
S1131272004F7363696C6C6F73636F706500426FC8
S10F12826465706C6F7420202020000054
S9030000FC
