S01300004F7363696C6F73636F70652E737265638E
S113000071C000008EC000008CC000008AC00000D7
S113001088C0000086C0000084C0000082C00000C8
S113002080C000007EC000007CC000007AC00000D8
S113003078C0000076C0000074C0000072C00000E8
S113004070C000002CC300006CC000006AC0000037
S113005068C0000066C0000064C0000062C0000008
S113006060C000005EC000005CC000005AC0000018
S113007058C000002DC3000054C0000052C000004E
S113008050C000004EC000004CC000004AC0000038
S113009087C3000046C0000044C0000042C0000006
S11300A040C000003EC000003CC000003AC0000058
S11300B038C0000036C0000034C0000032C0000068
S11300C030C000002EC000002CC000002AC0000078
S11300D028C0000026C0000024C0000022C0000088
S11300E020C0000011241FBECFEFD1E2DEBFCDBF80
S11300F000E00CBF12E0A0E0B2E0E4E1FBE000E0CD
S11301000BBF02C007900D92A630B107D9F720E1CA
S1130110A6E0B2E001C01D92A331B207E1F70DD110
S1130120F7C46ECFEAE7F0E090819C689083ECE737
S1130130F0E0808390819062908321E030E0A90117
S113014002C0440F551F8A95E2F7EEE7F0E04083C2
S11301508081809580838FEF80937D000895089A35
S1130160109A2FEF83ED90E3215080409040E1F707
S113017000C0000082E18093B800E9EBF0E08081E8
S11301808C7F808385E08093BC00089594EA9093EB
S1130190BC00ECEBF0E090819923ECF79091B9006E
S11301A0987F983099F48093BB0084E88093BC00D6
S11301B0ECEBF0E080818823ECF78091B900887F34
S11301C0883131F0803231F083E0089580E0089581
S11301D081E0089582E008958093BB0084E88093D1
S11301E0BC00ECEBF0E080818823ECF78091B9004F
S11301F0887F883221F0803321F082E0089580E006
S1130200089581E0089584E98093BC00ECEBF0E06C
S1130210808184FDFDCF089510928000E1E8F0E034
S11302201082109285001092840020812B6020831C
S11302309C0140E050E060E970ED83E090E016D46A
S1130240215031093093890020938800EFE6F0E0D3
S11302508081826080830895EF92FF920F931F93B1
S1130260CF93DF93CDB7DEB7FC010DB71EB78091F6
S113027004079091050707962DB73EB7281B390B45
S11302800FB6F8943EBF0FBE2DBF8DB79EB7019633
S11302907C018091040790910507079625E5ADB789
S11302A0BEB711962C932AEAD70111962C93119775
S11302B012969C93129713968C93139782E014963C
S11302C08C93A0910407B0910507AE0DBF1D159640
S11302D01C92A0910407B0910507AE0DBF1D1696A0
S11302E01C928091040790910507059606978CF05F
S11302F0D701159645E050E091919D934F5F5F4F74
S113030020910407309105072B5F3F4F4217530795
S11303109CF360910407709105076A5F7F4FC701E2
S113032077D30FB6F8941EBF0FBE0DBFDF91CF91E8
S11303301F910F91FF90EF90089580E0F3DE80E12C
S113034090E03AD380E190E049D309DFC7D230D3BB
S113035081D2789484E690E05FDF442443946894E7
S1130360222421F80F2EF7E0EF2EF0E1FF2EF02DDE
S11303700F2EF8E8CF2ED12CF02DAA24A394B12C63
S11303800F2EF8E18F2E912CF02D0F2EF3E03F2E3F
S1130390F02D55245A9403E112E00F2EF7E16F2E4D
S11303A0F3E07F2EF02DCDE0DBE08091120282306D
S11303B009F47CC0833009F406C18130B1F780911F
S11303C004028111F2CF40920402F70185818093E7
S11303D01102968190931002811117C080910F022F
S11303E0811103C090930E0209C0813019F49093D7
S11303F00D0204C0823011F490930C0240910C025F
S113040060910D0280910E022FD2809111028130F1
S113041089F480910F02823019F410920F0229C0DE
S1130420811103C040920F0224C0813011F5209243
S11304300F021FC0823099F480910B0281112BC1ED
S113044040910C0260910D0280910E020DD24092F7
S11304500B0240E060E080E007D210920B02809132
S11304601102833031F410920E0210920D02109298
S11304700C0285E588838AEA89831A828BE08B8360
S11304804C8280910F028D8380910E028E83809125
S11304900D028F8380910C02888719861A866AE080
S11304A070E0CE01B5D2109212027FCF8091040287
S11304B0811166C0F70185818093060B8681809344
S11304C0180B2091060B8091180B90E0922B9093BF
S11304D0051080930410878190E09093020F80931D
S11304E0010F808590E09093040F8093030F809117
S11304F0010F9091020F2091030F3091040F982F58
S11305008827822B932B90930507809304072091CF
S11305100410309105106091041070910510C90108
S1130520880F991F880F991F880F991F821B930B9F
S11305307D5289D2809104079091050722273327A1
S1130540261B370B821793073CF4C501861B970BB8
S113055090930507809304072091041030910510AF
S1130560032E000C440B550B60E970ED83E090E022
S11305707DD221503109F601318320834092040257
S113058080910C0B813009F010CF809103028130EF
S113059051F480910202813099F489E19BE05CDEA0
S11305A0209202020DC080910302811109C0809142
S11305B00202823029F48CE193E04EDE4092020282
S11305C010920C0BF2CE809104028111EECEF60152
S11305D09182808230920E0250920D0285E5F801DC
S11305E080838AEA8183428286E083833482109204
S11305F0190340E0415040930C0260910D02809138
S11306000E0232D15092090B10920A0B10921B0366
S113061010921A03452D30E080E090E020910A0208
S1130620213079F410920A0220911210241710F448
S11306304091121020911210321720F430911210B0
S113064001C001970196893EF3E09F0738F3909328
S11306501B0380931A0330930A0B4093090B341B3A
S113066030930B0B40911903E42FF0E0ED5EFD4F46
S113067035834F5F409319034F3F09F0BBCFF3011C
S11306801082E8E1F3E0108265E071E0C801C0D1B6
S1130690409204028ACE813009F0EBCEDACE1F926A
S11306A00F920FB60F9211240BB60F928F93EF9304
S11306B0FF93EAE7F0E0808180648083FF91EF910B
S11306C08F910F900BBE0F900FBE0F901F90189537
S11306D01F920F920FB60F9211240BB60F922F9305
S11306E03F938F939F93EF93FF938091790080932F
S11306F0121081E080930A0280910302813011F587
S1130700809108029091090220917900FC01E45E35
S1130710FC4F208301969093090280930802209154
S113072004073091050721503109281739075CF572
S113073010920902109208021092030281E0809341
S11307400C0B21C08091080290910902209179003C
S1130750FC01E75EF44F2083019690930902809395
S11307600802209104073091050721503109281708
S113077039074CF4109209021092080281E0809328
S1130780030280930C0BFF91EF919F918F913F9106
S11307902F910F900BBE0F900FBE0F901F901895C6
S11307A01F920F920FB60F9211240BB60F922F9334
S11307B03F938F939F93EF93FF93809106029091C1
S11307C007022091CE00FC01E95FFF4E20830196D1
S11307D0909307028093060220910B10213041F47C
S11307E02093120229E030E03093010220930002AA
S11307F020910B10223041F4209312022BE030E0C0
S1130800309301022093000220910B10233041F415
S11308102093120227E030E030930102209300027B
S113082020910002309101028217930731F4109253
S113083007021092060210920402FF91EF919F9119
S11308408F913F912F910F900BBE0F900FBE0F9081
S11308501F90189584B1876084B98CB580658CBD70
S11308608CB583608CBD08957AE5542F572756279D
S1130870582721E028987EBD0DB407FEFDCF3EB574
S113088025B928988EBD0DB407FEFDCF9EB525B9B8
S113089028986EBD0DB407FEFDCF25B928984EBD2E
S11308A00DB407FEFDCF25B928985EBD0DB407FE33
S11308B0FDCF25B9330F991F9927991F932B5913EE
S11308C0D9CF0895CF93C82F809105025FDC80E0D3
S11308D083DC8C2F81DC97DCCF9108958EEAF2DFE4
S11308E085EDF0DF80E8EEDF88EAECDF8FE3EADF16
S11308F083EDE8DF80E0E6DF80E4E4DF8DE8E2DF3B
S113090084E1E0DF80E2DEDF80E0DCDF81EADADF61
S113091088ECD8DF8AEDD6DF82E1D4DF81E8D2DF4C
S11309208FECD0DF89EDCEDF81EFCCDF8BEDCADF3A
S113093080E4C8DF84EAC6DF86EAC4DF8FEAC2CF78
S113094008958FEABFCF08958EEABCCF0895CF9360
S1130950C82F809105021ADC80E43EDC8C2F3CDC3D
S113096052DCCF910895CF93C62F8055ABDF8C2FE7
S1130970880F880F880F8870A5DF8C2F90E09695DC
S113098087958F70805F9EDFCF910895CF93DF931B
S1130990D0E060E08D2FE7DFC0E080E0D8DFCF5FFC
S11309A0C038D9F7DF5FD830A1F7DF91CF91089530
S11309B0CBDFECDFC6CF089522E02093C800E9EC3A
S11309C0F0E0208128692083EAECF0E020812660B1
S11309D020839093CD008093CC00089522E020934F
S11309E0C000E1ECF0E0208128612083E2ECF0E03B
S11309F02081266020839093C5008093C4000895CD
S1130A00E8ECF0E0908195FFFDCF8093CE0008954F
S1130A10EF92FF920F931F93CF93DF938C017B018F
S1130A20772354F0C0E0D0E0F80181918F01E8DF32
S1130A302196EC16FD06C4F7DF91CF911F910F911B
S1130A40FF90EF90089597FB072E16F4009406D0BC
S1130A5077FD08D027D007FC05D03EF4909581950A
S1130A609F4F0895709561957F4F0895052E97FBCC
S1130A7016F400940FD057FD05D028D007FC02D0FF
S1130A8046F408C050954095309521953F4F4F4FFF
S1130A905F4F089590958095709561957F4F8F4F26
S1130AA09F4F0895AA1BBB1B51E107C0AA1FBB1F80
S1130AB0A617B70710F0A61BB70B881F991F5A95E6
S1130AC0A9F780959095BC01CD010895A1E21A2E55
S1130AD0AA1BBB1BFD010DC0AA1FBB1FEE1FFF1FDE
S1130AE0A217B307E407F50720F0A21BB30BE40B2E
S1130AF0F50B661F771F881F991F1A9469F7609575
S1130B007095809590959B01AC01BD01CF0108952E
S1070B10F894FFCF83
S1090B140B000101017851
S9030000FC
