S01300004F7363696C6F73636F70652E737265638E
S1130000F1C100000EC200000CC200000AC20000D0
S113001008C20000ABC2000004C2000002C200001B
S113002000C20000FEC10000FCC10000FAC10000D3
S1130030F8C10000F6C10000F4C10000F2C10000E4
S1130040F0C10000EEC10000ECC10000EAC10000F4
S1130050E8C10000E6C10000E4C10000E2C1000004
S1130060E0C10000DEC10000DCC10000DAC1000014
S1130070D8C10000D6C10000D4C10000D2C1000024
S1130080D0C10000CEC10000CCC10000CAC1000034
S1130090C8C10000C6C10000C4C10000C2C1000044
S11300A0C0C10000BEC10000BCC10000BAC1000054
S11300B0B8C10000B6C10000B4C10000B2C1000064
S11300C0B0C10000AEC10000ACC10000AAC1000074
S11300D0A8C10000A6C10000A4C10000A2C1000084
S11300E0A0C10000000000000000000000005F004C
S11300F000000000000007000700000000147F1447
S11301007F14000000242A7F2A1200000023130811
S113011064620000003649552250000000000503C7
S113012000000000001C2241000000000041221CCD
S11301300000000000082A1C2A0800000008083EED
S11301400808000000A06000000000000008080883
S11301500808000000606000000000000020100893
S113016004020000003E5149453E00000000427F69
S11301704000000000625149494600000022414904
S113018049360000001814127F100000002745456E
S113019045390000003C4A4949300000000171091A
S11301A00503000000364949493600000006494964
S11301B0291E000000003636000000000000AC6C70
S11301C00000000000081422410000000014141470
S11301D01414000000412214080000000002015120
S11301E00906000000324979413E0000007E0909F9
S11301F0097E0000007F494949360000003E414124
S113020041220000007F4141221C0000007F494937
S113021049410000007F090909010000003E4141F5
S113022051720000007F0808087F000000417F41F0
S113023000000000002040413F010000007F08143E
S113024022410000007F404040400000007F020C3B
S1130250027F0000007F0408107F0000003E41413F
S1130260413E0000007F090909060000003E41519B
S1130270215E0000007F0919294600000026494933
S1130280493200000001017F01010000003F4040AD
S1130290403F0000001F2040201F0000003F403866
S11302A0403F000000631408146300000003047856
S11302B0040300000061514945430000007F4141AF
S11302C00000000000020408102000000041417FEB
S11302D0000000000004020102040000008080808D
S11302E0808000000001020400000000002054543B
S11302F054780000007F48444438000000384444E7
S11303002800000000384444487F0000003854545A
S11303105418000000087E09020000000018A4A47C
S1130320A47C0000007F08040478000000007D0025
S1130330000000000080847D00000000007F102881
S11303404400000000417F4000000000007C0418CD
S113035004780000007C08047C0000000038444459
S11303603800000000FC2424180000000018242495
S1130370FC00000000007C08040000000048545405
S11303802400000000047F4400000000003C4040C2
S11303907C000000001C2040201C0000003C403079
S11303A0403C00000044281028440000001CA0A089
S11303B07C000000004464544C44000000083641B2
S11303C00000000000007F0000000000004136082B
S11303D00000000000020101020100000002050506
S11303E00200000011241FBECFEFD1E2DEBFCDBF5B
S11303F000E00CBF12E0A0E0B2E0E8E1F7E000E0CA
S11304000BBF02C007900D92A230B107D9F726E0C6
S1130410A2E0B2E001C01D92A330B207E1F788D098
S113042079C1EECDEAE7F0E09081946A9083EBE73E
S1130430F0E0908196609083ECE7F0E08083908117
S11304409064908321E030E0A90102C0440F551F5D
S11304508A95E2F7EEE7F0E040838081809580831F
S11304608FEF80937D000895089A109A2FEF83ED03
S113047090E3215080409040E1F700C0000082E109
S11304808093B800E9EBF0E080818C7F808385E085
S11304908093BC00089594EA9093BC00ECEBF0E0E8
S11304A090819923ECF79091B900987F983099F452
S11304B08093BB0084E88093BC00ECEBF0E0808187
S11304C08823ECF78091B900887F883131F080323D
S11304D031F083E0089580E0089581E0089582E09A
S11304E008958093BB0084E88093BC00ECEBF0E0BB
S11304F080818823ECF78091B900887F883221F0CD
S1130500803321F082E0089580E0089581E0089529
S113051084E98093BC00ECEBF0E0808184FDFDCFA6
S11305200895EAE6F0E0808182608083EC9A089581
S11305307894F7DF82E076DF87E690E0D9D094DF25
S113054030D099D0CAE7D0E009E710E08881806410
S11305508883888184FFFDCFF801808190E041E0A9
S113056050E061E070E0C0978AD0F0CF1F920F9204
S11305700FB60F9211248F9381E0809302068F911E
S11305800F900FBE0F901F901895CF93C82F809196
S1130590000281DF80E0A5DF8C2FA3DFB9DFCF91DC
S11305A008958EEAF2DF85EDF0DF80E8EEDF88EA79
S11305B0ECDF8FE3EADF83EDE8DF80E0E6DF80E471
S11305C0E4DF8DE8E2DF84E1E0DF80E2DEDF80E08B
S11305D0DCDF81EADADF88ECD8DF8AEDD6DF82E17E
S11305E0D4DF81E8D2DF8FECD0DF89EDCEDF81EF7D
S11305F0CCDF8BEDCADF80E4C8DF84EAC6DF86EA9D
S1130600C4DF8FEAC2CF08958FEABFCF08958EEA80
S1130610BCCF0895CF93C82F809100023CDF80E4C3
S113062060DF8C2F5EDF74DFCF910895CF93C62FE8
S11306308055ABDF8C2F880F880F880F8870A5DF5B
S11306408C2F90E0969587958F70805F9EDFCF9179
S11306500895CF93DF93D0E060E08D2FE7DFC0E013
S113066080E0D8DFCF5FC038D9F7DF5FD830A1F79B
S1130670DF91CF910895CBDFECDFC6CF0895FF92D1
S11306800F931F93CF93DF93EC01862FF62E642FE5
S1130690CDDF9881992331F1F3949A3039F460E0F5
S11306A08F2DC4DF8E010F5F1F4F01C08E01C0E08C
S11306B0D0E0D801EC91F0E0EE0FFF1FEE0FFF1F2A
S11306C0EE0FFF1FEC51F040EC0FFD1F8491A2DFF1
S11306D02196C830D10569F7E8012196F801918186
S11306E09111DBCFDF91CF911F910F91FF9008956E
S11306F022E02093C000E1ECF0E020812861208317
S1130700E2ECF0E02081266020839093C500809382
S10B0710C4000895F894FFCF22
S1050718780063
S9030000FC
