:10000000F1C100000EC200000CC200000AC20000D4
:1000100008C2000006C2000004C2000002C20000C4
:1000200000C20000FEC10000FCC10000FAC10000D7
:10003000F8C10000F6C10000F4C10000F2C10000E8
:10004000F0C100006AC40000ECC10000EAC1000079
:10005000E8C10000E6C10000E4C10000E2C1000008
:10006000E0C10000DEC10000DCC10000DAC1000018
:10007000D8C100006BC40000D4C10000D2C1000090
:10008000D0C10000CEC10000CCC10000CAC1000038
:10009000C1C40000C6C10000C4C10000C2C100004C
:1000A000C0C10000BEC10000BCC10000BAC1000058
:1000B000B8C10000B6C10000B4C10000B2C1000068
:1000C000B0C10000AEC10000ACC10000AAC1000078
:1000D000A8C10000A6C10000A4C10000A2C1000088
:1000E000A0C10000000000000000000000005F0050
:1000F00000000000000007000700000000147F144B
:100100007F14000000242A7F2A1200000023130815
:1001100064620000003649552250000000000503CB
:1001200000000000001C2241000000000041221CD1
:100130000000000000082A1C2A0800000008083EF1
:100140000808000000A06000000000000008080887
:100150000808000000606000000000000020100897
:1001600004020000003E5149453E00000000427F6D
:100170004000000000625149494600000022414908
:1001800049360000001814127F1000000027454572
:1001900045390000003C4A4949300000000171091E
:1001A0000503000000364949493600000006494968
:1001B000291E000000003636000000000000AC6C74
:1001C0000000000000081422410000000014141474
:1001D0001414000000412214080000000002015124
:1001E0000906000000324979413E0000007E0909FD
:1001F000097E0000007F494949360000003E414128
:1002000041220000007F4141221C0000007F49493B
:1002100049410000007F090909010000003E4141F9
:1002200051720000007F0808087F000000417F41F4
:1002300000000000002040413F010000007F081442
:1002400022410000007F404040400000007F020C3F
:10025000027F0000007F0408107F0000003E414143
:10026000413E0000007F090909060000003E41519F
:10027000215E0000007F0919294600000026494937
:10028000493200000001017F01010000003F4040B1
:10029000403F0000001F2040201F0000003F40386A
:1002A000403F00000063140814630000000304785A
:1002B000040300000061514945430000007F4141B3
:1002C0000000000000020408102000000041417FEF
:1002D0000000000000040201020400000080808091
:1002E000808000000001020400000000002054543F
:1002F00054780000007F48444438000000384444EB
:100300002800000000384444487F0000003854545E
:100310005418000000087E09020000000018A4A480
:10032000A47C0000007F08040478000000007D0029
:10033000000000000080847D00000000007F102885
:100340004400000000417F4000000000007C0418D1
:1003500004780000007C08047C000000003844445D
:100360003800000000FC2424180000000018242499
:10037000FC00000000007C08040000000048545409
:100380002400000000047F4400000000003C4040C6
:100390007C000000001C2040201C0000003C40307D
:1003A000403C00000044281028440000001CA0A08D
:1003B0007C000000004464544C44000000083641B6
:1003C0000000000000007F0000000000004136082F
:1003D000000000000002010102010000000205050A
:1003E0000200000011241FBECFEFD1E2DEBFCDBF5F
:1003F00000E00CBF12E0A0E0B2E0E4ECFDE000E0C1
:100400000BBF02C007900D92A032B107D9F720E1CF
:10041000A0E2B2E001C01D92AC32B207E1F70DD10B
:10042000CFC4EECDEAE7F0E090819C689083ECE7E2
:10043000F0E0808390819062908321E030E0A90118
:1004400002C0440F551F8A95E2F7EEE7F0E04083C3
:100450008081809580838FEF80937D000895089A36
:10046000109A2FEF83ED90E3215080409040E1F708
:1004700000C0000082E18093B800E9EBF0E08081E9
:100480008C7F808385E08093BC00089594EA9093EC
:10049000BC00ECEBF0E090819923ECF79091B9006F
:1004A000987F983099F48093BB0084E88093BC00D7
:1004B000ECEBF0E080818823ECF78091B900887F35
:1004C000883131F0803231F083E0089580E0089582
:1004D00081E0089582E008958093BB0084E88093D2
:1004E000BC00ECEBF0E080818823ECF78091B90050
:1004F000887F883221F0803321F082E0089580E007
:10050000089581E0089584E98093BC00ECEBF0E06D
:10051000808184FDFDCF089510928000E1E8F0E035
:100520001082109285001092840020812B6020831D
:100530009C0140E050E060E970ED83E090E002D47F
:10054000215031093093890020938800EFE6F0E0D4
:100550008081826080830895EF92FF920F931F93B2
:10056000CF93DF93CDB7DEB7FC010DB71EB78091F7
:100570001D0790911E0707962DB73EB7281B390B14
:100580000FB6F8943EBF0FBE2DBF8DB79EB7019634
:100590007C0180911D0790911E07079625E5ADB758
:1005A000BEB711962C932AEAD70111962C93119776
:1005B00012969C93129713968C93139782E014963D
:1005C0008C93A0911D07B0911E07AE0DBF1D15960F
:1005D0001C92A0911D07B0911E07AE0DBF1D16966F
:1005E0001C9280911D0790911E07059606978CF02E
:1005F000D701159645E050E091919D934F5F5F4F75
:1006000020911D0730911E072B5F3F4F4217530764
:100610009CF360911D0770911E076A5F7F4FC701B1
:100620006AD30FB6F8941EBF0FBE0DBFDF91CF91F6
:100630001F910F91FF90EF90089580E0F3DE80E12D
:1006400090E02DD380E190E03CD309DF81D2EAD263
:100650003BD278948AE090E05FDF0F2EF0E2AF2E7D
:10066000F0E1BF2EF02D222423940F2EF3E09F2ED5
:10067000F02D55245A94312C432C0F2EF9EEEF2EE9
:10068000F3E0FF2EF02D0F2EFCE2CF2EF2E0DF2E56
:10069000F02DC0E3D3E00F2EF1E36F2EF3E07F2EB9
:1006A000F02D06E21BE080912B02823009F478C025
:1006B000833009F4C0C08130B1F7F50185818093A2
:1006C0002A02968190932902811117C080912802F5
:1006D000811103C09093270209C0813019F49093CF
:1006E000260204C0823011F4909325024091250225
:1006F0006091260280912702F1D180912A028130F7
:1007000091F480912802823019F4309228022AC094
:10071000811103C02092280225C0813019F582E0A2
:10072000809328021FC0823099F4809124028111A5
:10073000F0C0409125026091260280912702CED11F
:1007400020922402432D632D832DC8D130922402A0
:1007500080912A02833031F43092270230922602AF
:100760003092250285E5F80180838AEA818312822E
:100770008BE08383248280912802858380912702E5
:100780008683809126028783809125028087118647
:1007900012866AE070E0C801AED230922B0283CF9D
:1007A00040E050E065E070E085E092E03FD280916B
:1007B0000302811134C0F501858180931F0B86816E
:1007C0008093310B20911F0B8091310B90E0922B85
:1007D00090931E1080931D10878190E090931B0FC3
:1007E00080931A0F808590E090931D0F80931C0FCB
:1007F00080911A0F90911B0F20911C0F30911D0FAB
:10080000982F8827822B932B90931E0780931D0788
:1008100080911D1090911E107FDE20920302809126
:10082000250B813021F485E393E096DE3CCF82E313
:100830009BE092DE38CF40E050E065E070E082E17E
:1008400092E0F4D180E197E267DE90922702509225
:10085000260230923203432D4F5F40932502609170
:100860002602809127023AD189EE93E0242D452D6E
:1008700030912B10341710F440912B1030912B1025
:10088000231710F420912B10019791F74093220B1E
:10089000F0923403E09233032093230B822F90E0F5
:1008A000841B91099C0112F42F5F3F4F35952795CA
:1008B0002093240B40913203E42FF0E0E25EF04FEE
:1008C00020834F5F409332034F3F31F6EEE1FFE06C
:1008D000208120931F1085E5F60180838AEA8183B9
:1008E000228286E083839482AEE1BFE0E1E3F2E01E
:1008F0008D91622F1BD28193EC17FD07C9F750929F
:1009000032031882F301108265E071E0C601F3D171
:10091000CACE813009F026CF15CF1F920F920FB6A5
:100920000F9211240BB60F928F93EF93FF93EAE788
:10093000F0E0808180648083FF91EF918F910F9030
:100940000BBE0F900FBE0F901F9018951F920F9225
:100950000FB60F9211240BB60F922F933F938F93E4
:100960009F93EF93FF938091790080932B10809158
:100970000202813009F58091220290912302209198
:100980007900FC01EB5CFC4F2083019690932302DD
:100990008093220220911D0730911E0721503109BA
:1009A0002817390754F51092230210922202109250
:1009B00002021092250B21C0809122029091230205
:1009C00020917900FC01EE5CF44F20830196909316
:1009D00023028093220220911D0730911E0721508F
:1009E0003109281739074CF4109223021092220281
:1009F00081E0809302028093250BFF91EF919F91FC
:100A00008F913F912F910F900BBE0F900FBE0F90C3
:100A10001F9018951F920F920FB60F9211240BB6CC
:100A20000F922F933F938F939F93EF93FF93809118
:100A30002002909121022091CE00FC01E05EFF4E49
:100A4000208301969093210280932002209124100C
:100A5000213041F420932B0229E030E03093010251
:100A60002093000220912410223041F420932B0285
:100A70002BE030E0309301022093000220912410FB
:100A8000233041F420932B0227E030E03093010221
:100A900020930002209100023091010282179307F7
:100AA00021F4109221021092200210920302FF9171
:100AB000EF919F918F913F912F910F900BBE0F90CF
:100AC0000FBE0F901F90189584B1876084B98CB5C4
:100AD00080658CBD8CB583608CBD08957AE5542FFC
:100AE00057275627582721E028987EBD0DB407FECA
:100AF000FDCF3EB525B928988EBD0DB407FEFDCFBC
:100B00009EB525B928986EBD0DB407FEFDCF25B959
:100B100028984EBD0DB407FEFDCF25B928985EBDBF
:100B20000DB407FEFDCF25B9330F991F9927991FE3
:100B3000932B5913D9CF0895CF93C82F80910402D6
:100B4000A5DC80E0C9DC8C2FC7DCDDDCCF9108950B
:100B50008EEAF2DF85EDF0DF80E8EEDF88EAECDF99
:100B60008FE3EADF83EDE8DF80E0E6DF80E4E4DFC7
:100B70008DE8E2DF84E1E0DF80E2DEDF80E0DCDFE1
:100B800081EADADF88ECD8DF8AEDD6DF82E1D4DFD4
:100B900081E8D2DF8FECD0DF89EDCEDF81EFCCDFD3
:100BA0008BEDCADF80E4C8DF84EAC6DF86EAC4DFF3
:100BB0008FEAC2CF08958FEABFCF08958EEABCCFE7
:100BC0000895CF93C82F8091040260DC80E484DC18
:100BD0008C2F82DC98DCCF910895CF93C62F80555F
:100BE000ABDF8C2F880F880F880F8870A5DF8C2FC4
:100BF00090E0969587958F70805F9EDFCF910895E6
:100C0000CF93DF93D0E060E08D2FE7DFC0E080E09E
:100C1000D8DFCF5FC038D9F7DF5FD830A1F7DF91D9
:100C2000CF910895CBDFECDFC6CF0895FF920F93ED
:100C30001F93CF93DF93EC01862FF62E642FCDDF29
:100C40009881992331F1F3949A3039F460E08F2D33
:100C5000C4DF8E010F5F1F4F01C08E01C0E0D0E0E6
:100C6000D801EC91F0E0EE0FFF1FEE0FFF1FEE0F2B
:100C7000FF1FEC51F040EC0FFD1F8491A2DF219685
:100C8000C830D10569F7E8012196F80191819111E9
:100C9000DBCFDF91CF911F910F91FF90089522E05C
:100CA0002093C800E9ECF0E0208128692083EAEC79
:100CB000F0E02081266020839093CD008093CC00CB
:100CC000089522E02093C000E1ECF0E0208128614B
:100CD0002083E2ECF0E02081266020839093C50021
:100CE0008093C4000895E8ECF0E0908195FFFDCF7B
:100CF0008093CE000895EF92FF920F931F93CF93AE
:100D0000DF938C017B01772354F0C0E0D0E0F80141
:100D100081918F01E8DF2196EC16FD06C4F7DF9183
:100D2000CF911F910F91FF90EF900895991B79E05B
:100D300004C0991F961708F0961B881F7A95C9F76B
:100D400080950895052E97FB16F400940FD057FD5B
:100D500005D014D007FC02D046F408C05095409549
:100D6000309521953F4F4F4F5F4F08959095809557
:100D7000709561957F4F8F4F9F4F0895A1E21A2E76
:100D8000AA1BBB1BFD010DC0AA1FBB1FEE1FFF1F2F
:100D9000A217B307E407F50720F0A21BB30BE40B7F
:100DA000F50B661F771F881F991F1A9469F76095C6
:100DB0007095809590959B01AC01BD01CF01089580
:040DC000F894FFCFD5
:100DC4000B000101784F7363696C6C6F73636F7010
:100DD4006500426F6465706C6F74202020200000F1
:00000001FF
