:10000000F1C100000EC200000CC200000AC20000D4
:1000100008C2000006C2000004C2000002C20000C4
:1000200000C20000FEC10000FCC10000FAC10000D7
:10003000F8C10000F6C10000F4C10000F2C10000E8
:10004000F0C1000030C30000ECC10000EAC10000B4
:10005000E8C10000E6C10000E4C10000E2C1000008
:10006000E0C10000DEC10000DCC10000DAC1000018
:10007000D8C100003FC30000D4C10000D2C10000BD
:10008000D0C10000CEC10000CCC10000CAC1000038
:100090004FC30000C6C10000C4C10000C2C10000BF
:1000A000C0C10000BEC10000BCC10000BAC1000058
:1000B000B8C10000B6C10000B4C10000B2C1000068
:1000C000B0C10000AEC10000ACC10000AAC1000078
:1000D000A8C10000A6C10000A4C10000A2C1000088
:1000E000A0C10000000000000000000000005F0050
:1000F00000000000000007000700000000147F144B
:100100007F14000000242A7F2A1200000023130815
:1001100064620000003649552250000000000503CB
:1001200000000000001C2241000000000041221CD1
:100130000000000000082A1C2A0800000008083EF1
:100140000808000000A06000000000000008080887
:100150000808000000606000000000000020100897
:1001600004020000003E5149453E00000000427F6D
:100170004000000000625149494600000022414908
:1001800049360000001814127F1000000027454572
:1001900045390000003C4A4949300000000171091E
:1001A0000503000000364949493600000006494968
:1001B000291E000000003636000000000000AC6C74
:1001C0000000000000081422410000000014141474
:1001D0001414000000412214080000000002015124
:1001E0000906000000324979413E0000007E0909FD
:1001F000097E0000007F494949360000003E414128
:1002000041220000007F4141221C0000007F49493B
:1002100049410000007F090909010000003E4141F9
:1002200051720000007F0808087F000000417F41F4
:1002300000000000002040413F010000007F081442
:1002400022410000007F404040400000007F020C3F
:10025000027F0000007F0408107F0000003E414143
:10026000413E0000007F090909060000003E41519F
:10027000215E0000007F0919294600000026494937
:10028000493200000001017F01010000003F4040B1
:10029000403F0000001F2040201F0000003F40386A
:1002A000403F00000063140814630000000304785A
:1002B000040300000061514945430000007F4141B3
:1002C0000000000000020408102000000041417FEF
:1002D0000000000000040201020400000080808091
:1002E000808000000001020400000000002054543F
:1002F00054780000007F48444438000000384444EB
:100300002800000000384444487F0000003854545E
:100310005418000000087E09020000000018A4A480
:10032000A47C0000007F08040478000000007D0029
:10033000000000000080847D00000000007F102885
:100340004400000000417F4000000000007C0418D1
:1003500004780000007C08047C000000003844445D
:100360003800000000FC2424180000000018242499
:10037000FC00000000007C08040000000048545409
:100380002400000000047F4400000000003C4040C6
:100390007C000000001C2040201C0000003C40307D
:1003A000403C00000044281028440000001CA0A08D
:1003B0007C000000004464544C44000000083641B6
:1003C0000000000000007F0000000000004136082F
:1003D000000000000002010102010000000205050A
:1003E0000200000011241FBECFEFD1E2DEBFCDBF5F
:1003F00000E00CBF12E0A0E0B2E0E8E9FFE000E0BE
:100400000BBF02C007900D92A830B107D9F726E0C4
:10041000A8E0B2E001C01D92A031B207E1F7DCD044
:10042000B9C5EECDEAE7F0E090819C689083ECE7F7
:10043000F0E0808390819066908321E030E0A90114
:1004400002C0440F551F8A95E2F7EEE7F0E04083C3
:100450008081809580838FEF80937D000895089A36
:10046000109A2FEF83ED90E3215080409040E1F708
:1004700000C0000082E18093B800E9EBF0E08081E9
:100480008C7F808385E08093BC00089594EA9093EC
:10049000BC00ECEBF0E090819923ECF79091B9006F
:1004A000987F983099F48093BB0084E88093BC00D7
:1004B000ECEBF0E080818823ECF78091B900887F35
:1004C000883131F0803231F083E0089580E0089582
:1004D00081E0089582E008958093BB0084E88093D2
:1004E000BC00ECEBF0E080818823ECF78091B90050
:1004F000887F883221F0803321F082E0089580E007
:10050000089581E0089584E98093BC00ECEBF0E06D
:10051000808184FDFDCF089510928000E1E8F0E035
:100520001082109285001092840020812860208320
:100530008F319105D8F42081236020839C01002411
:10054000369527950794369527950794322F202DB9
:1005500040E050E060E074E284EF90E0EBD12054A2
:100560003109309389002093880030C0853F910580
:10057000D0F4E1E8F0E02081226020839C01220F8A
:10058000331F220F331F220F331F40E050E060E083
:1005900074E284EF90E0CED1285031093093890085
:1005A0002093880013C0E1E8F0E0208121602083DF
:1005B0009C0140E050E060E074E284EF90E0BAD14A
:1005C000215031093093890020938800EFE6F0E054
:1005D0008081826080830895CF93DF93CDB7DEB7AB
:1005E00069970FB6F894DEBF0FBECDBF80E01ADF6B
:1005F00080E190E085D133DFB1D01AD180E197E27C
:100600008BDF789401E012E06E0180E1C80ED11C0E
:100610007E0196E0E90EF11CBB24B394809109029F
:100620008F93809108028F931F930F93DF92CF9245
:10063000C6D141E050E063E070E0C60128D180916E
:100640000B028F9380910A028F931F930F93FF9257
:10065000EF92B5D141E050E064E070E0C70117D1FE
:10066000B0920E0610920E06B0920C0610920C0676
:1006700080910F064AE0BE016F5F7F4F90E07CD112
:1006800041E050E061E070E0CE01019600D184E0ED
:1006900092E0D2D080910F0645D10FB6F894DEBF1C
:1006A0000FBECDBFBBCF1F920F920FB60F9211247A
:1006B0000BB60F928F939F93EF93FF9381E08093FC
:1006C0000E06EAE7F0E08081806480838091080272
:1006D0009091090201969093090280930802FF917C
:1006E000EF919F918F910F900BBE0F900FBE0F90C7
:1006F0001F9018951F920F920FB60F9211248F938F
:100700009F9380910A0290910B02019690930B02A5
:1007100080930A028091790080930F0681E0809394
:100720000C069F918F910F900FBE0F901F90189500
:100730001F920F920FB60F9211240F900FBE0F90C1
:100740001F901895CF93C82F809100029FDE80E004
:10075000C3DE8C2FC1DED7DECF9108958EEAF2DFA3
:1007600085EDF0DF80E8EEDF88EAECDF8FE3EADF9B
:1007700083EDE8DF80E0E6DF80E4E4DF8DE8E2DFC0
:1007800084E1E0DF80E2DEDF80E0DCDF81EADADFE7
:1007900088ECD8DF8AEDD6DF82E1D4DF81E8D2DFD2
:1007A0008FECD0DF89EDCEDF81EFCCDF8BEDCADFC0
:1007B00080E4C8DF84EAC6DF86EAC4DF8FEAC2CFFE
:1007C00008958FEABFCF08958EEABCCF0895CF93E6
:1007D000C82F809100025ADE80E47EDE8C2F7CDE02
:1007E00092DECF910895CF93C62F8055ABDF8C2F2B
:1007F000880F880F880F8870A5DF8C2F90E0969562
:1008000087958F70805F9EDFCF910895CF93DF93A0
:10081000D0E060E08D2FE7DFC0E080E0D8DFCF5F81
:10082000C038D9F7DF5FD830A1F7DF91CF910895B5
:10083000CBDFECDFC6CF08950F931F93CF93DF93E9
:100840008C01DC018C9181111AC01CC0D801EC9183
:10085000F0E0EE0FFF1FEE0FFF1FEE0FFF1FEC513A
:10086000F040EC0FFD1F8491B2DF2196C830D10516
:1008700069F70F5F1F4FF8018081882319F0C0E0EE
:10088000D0E0E4CFDF91CF911F910F910895FF92B7
:100890000F931F93CF93DF93EC01862FF62E642FD7
:1008A000A2DF9881992331F1F3949A3039F460E012
:1008B0008F2D99DF8E010F5F1F4F01C08E01C0E0A9
:1008C000D0E0D801EC91F0E0EE0FFF1FEE0FFF1F1C
:1008D000EE0FFF1FEC51F040EC0FFD1F849177DF0E
:1008E0002196C830D10569F7E8012196F801918178
:1008F0009111DBCFDF91CF911F910F91FF90089560
:1009000022E02093C800E9ECF0E0208128612083F8
:10091000EAECF0E02081266020839093CD00809364
:10092000CC000895E8ECF0E0908195FFFDCF809336
:10093000CE000895A1E21A2EAA1BBB1BFD010DC01B
:10094000AA1FBB1FEE1FFF1FA217B307E407F5077F
:1009500020F0A21BB30BE40BF50B661F771F881F5B
:10096000991F1A9469F760957095809590959B01F1
:10097000AC01BD01CF010895BB274A3031F4992362
:1009800022F4BDE2909581959F4F01C0BB27FB01EA
:100990005527AA27880F991FAA1FA41710F0A41B78
:1009A00083955051B9F7A05DAA3308F0A95DA193D2
:1009B000009779F7B111B1931192CB0141C20F9316
:1009C0001F93CF93DF93CDB7DEB72E970FB6F89472
:1009D000DEBF0FBECDBF0E891F8986E08C831A83D0
:1009E00009838FEF9FE79E838D83AE01465E5F4F45
:1009F000688D798DCE01019610D0EF81F885E00FDA
:100A0000F11F10822E960FB6F894DEBF0FBECDBF39
:100A1000DF91CF911F910F9108952F923F924F92A6
:100A20005F926F927F928F929F92AF92BF92CF927E
:100A3000DF92EF92FF920F931F93CF93DF93CDB787
:100A4000DEB72B970FB6F894DEBF0FBECDBF6C019B
:100A50007B018A01FC0117821682838181FFBFC15D
:100A6000CE0101963C01F6019381F70193FD85913A
:100A700093FF81917F01882309F4ADC1853239F458
:100A800093FD859193FF81917F01853221F4B60119
:100A900090E0E6D1E8CF912C212C312CFFE1F31529
:100AA000D8F08B3279F038F4803279F08332A1F4C7
:100AB000232D20611DC08D3261F0803369F4232D18
:100AC000216016C0832D8260382EE32DE4603E2E17
:100AD0002AC0F32DF8601DC037FC2DC020ED280F73
:100AE0002A3040F08E32B9F436FC75C1232D2064D3
:100AF000322E19C036FE06C08AE0989E200D1124C1
:100B0000922E11C0EAE02E9E200D1124222EF32DEC
:100B1000F0623F2E08C08C3621F4832D8068382E79
:100B200002C0883641F4F70193FD859193FF8191CE
:100B30007F018111B3CF982F9F7D9554933028F476
:100B40000C5F1F4F9FE399830DC0833631F08337CD
:100B500071F0833509F055C020C0F8018081898388
:100B60000E5F1F4F88248394912C530112C02801DB
:100B7000F2E04F0E511CF801A080B18036FE03C098
:100B8000692D70E002C06FEF7FEFC5014ED14C01BF
:100B90008201F32DFF773F2E15C0280122E0420E7F
:100BA000511CF801A080B18036FE03C0692D70E0B1
:100BB00002C06FEF7FEFC5012DD14C01F32DF0681E
:100BC0003F2E820133FC19C0822D90E088169906D1
:100BD000A0F4B60180E290E043D12A94F5CFF5016C
:100BE00037FC859137FE81915F01B60190E038D1E5
:100BF00021102A9421E0821A91088114910479F736
:100C0000E1C0843611F0893639F5F80137FE07C0A6
:100C100060817181828193810C5F1F4F08C0608168
:100C20007181072E000C880B990B0E5F1F4FF32D5F
:100C3000FF763F2E97FF09C090958095709561953E
:100C40007F4F8F4F9F4FF0683F2E2AE030E0A30187
:100C500043D1882E861844C0853731F4232D2F7E4A
:100C6000B22E2AE030E025C0932D997FB92E8F3621
:100C7000C1F018F4883579F0AEC0803719F08837A4
:100C800021F0A9C0E92FE061BE2EB4FE0DC0FB2DFE
:100C9000F460BF2E09C034FE0AC0292F2660B22E90
:100CA00006C028E030E005C020E130E002C020E1CD
:100CB00032E0F801B7FE07C06081718182819381C3
:100CC0000C5F1F4F06C06081718180E090E00E5F75
:100CD0001F4FA30101D1882E8618FB2DFF773F2ED1
:100CE00036FE0DC0232D2E7FA22E891458F434FE1B
:100CF0000BC032FC09C0832D8E7EA82E05C0B82CF7
:100D0000A32C03C0B82C01C0B92CA4FE0FC0FE0157
:100D1000E80DF11D8081803321F49A2D997EA92E52
:100D200009C0A2FE06C0B394B39404C08A2D86788D
:100D300009F0B394A3FC10C0A0FE06C0B21480F466
:100D4000280C922C9B180DC0B21458F4B60180E206
:100D500090E086D0B394F8CFB21418F42B1802C0E8
:100D6000982C212CA4FE0FC0B60180E390E078D02F
:100D7000A2FE16C0A1FC03C088E790E002C088E58F
:100D800090E0B6010CC08A2D867851F0A1FE02C019
:100D90008BE201C080E2A7FC8DE2B60190E060D05A
:100DA000891430F4B60180E390E05AD09A94F8CFD9
:100DB0008A94F301E80DF11D8081B60190E050D0D6
:100DC0008110F6CF222009F44ECEB60180E290E0E9
:100DD00047D02A94F7CFF6018681978102C08FEF22
:100DE0009FEF2B960FB6F894DEBF0FBECDBFDF91FD
:100DF000CF911F910F91FF90EF90DF90CF90BF9018
:100E0000AF909F908F907F906F905F904F903F90AA
:100E10002F900895FC010590615070400110D8F7A3
:100E2000809590958E0F9F1F0895FC016150704032
:100E300001900110D8F7809590958E0F9F1F08950F
:100E4000DC01FC01672F71917723E1F7329704C031
:100E50007C916D9370836291AE17BF07C8F30895BC
:100E60000F931F93CF93DF93FB01238121FD03C0D9
:100E70008FEF9FEF2CC022FF16C04681578124813F
:100E800035814217530744F4A081B1819D012F5F42
:100E90003F4F318320838C93268137812F5F3F4FD3
:100EA0003783268314C08B01EC01FB010084F1859C
:100EB000E02D1995892BE1F6D80116968D919C911C
:100EC0001797019617969C938E931697CE01DF91F4
:100ED000CF911F910F910895FA01AA27283051F15F
:100EE000203181F1E8946F936E7F6E5F7F4F8F4F5B
:100EF0009F4FAF4FB1E03ED0B4E03CD0670F781FBA
:100F0000891F9A1FA11D680F791F8A1F911DA11D9E
:100F10006A0F711D811D911DA11D20D009F46894D7
:100F20003F912AE0269F11243019305D3193DEF67F
:100F3000CF010895462F4770405D4193B3E00FD035
:100F4000C9F7F6CF462F4F70405D4A3318F0495D20
:100F500031FD4052419302D0A9F7EACFB4E0A69503
:100F60009795879577956795BA95C9F70097610525
:100F7000710508959B01AC010A2E0694579547957B
:100F800037952795BA95C9F7620F731F841F951F70
:080F9000A01D0895F894FFCFA5
:080F98007825750020200000FF
:00000001FF
