:1000000071C0000081C000007FC000007DC0000002
:100010007BC0000098C0000077C0000075C00000E1
:1000200073C0000071C000006FC000006DC0000010
:100030006BC0000069C0000067C0000065C0000020
:1000400063C0000061C000005FC000005DC0000030
:100050005BC0000059C0000057C0000055C0000040
:1000600053C0000051C000004FC000004DC0000050
:100070004BC0000049C0000047C0000045C0000060
:1000800043C0000041C000003FC000003DC0000070
:100090003BC0000039C0000037C0000035C0000080
:1000A00033C0000031C000002FC000002DC0000090
:1000B0002BC0000029C0000027C0000025C00000A0
:1000C00023C0000021C000001FC000001DC00000B0
:1000D0001BC0000019C0000017C0000015C00000C0
:1000E00013C0000011241FBECFEFD1E2DEBFCDBF91
:1000F00000E00CBF22E0A0E0B2E001C01D92A13000
:10010000B207E1F719D040C07BCFEAE7F0E0808189
:100110008F6A8083EBE7F0E0808186608083ECE784
:10012000F0E08081806480830895EAE6F0E08081D9
:1001300082608083EC9A08957894F7DFE6DF87E6A3
:1001400090E010D0F9CF1F920F920FB60F921124AA
:100150008F9381E0809300028F910F900FBE0F90DC
:100160001F90189522E02093C000E1ECF0E0208180
:1001700028612083E2ECF0E02081266020839093C8
:0C018000C5008093C4000895F894FFCFE0
:00000001FF
